:1000000070EF16F0120FF66E000EF7220900F55091
:10001000120000000000003E5B4F5B3E3E6B4F6BEA
:100020003E1C3E7C3E1C183C7E3C181C577D571CD9
:100030001C5E7F5E1C00183C1800FFE7C3E7FF0052
:1000400018241800FFE7DBE7FF30483A060E2629A0
:10005000792926407F050507407F05253F5A3CE763
:100060003C5A7F3E1C1C08081C1C3E7F14227F2229
:10007000145F5F005F5F06097F017F006689956AF4
:10008000606060606094A2FFA29408047E0408107F
:10009000207E201008082A1C08081C2A08081E10A8
:1000A0001010100C1E0C1E0C30383E3830060E3E60
:1000B0000E06000000000000005F000000070007BF
:1000C00000147F147F14242A7F2A122313086462E9
:1000D00036495620500008070300001C224100004A
:1000E00041221C002A1C7F1C2A08083E08080080A8
:1000F0007030000808080808000060600020100840
:1001000004023E5149453E00427F40007249494940
:10011000462141494D331814127F10274545453972
:100120003C4A494931412111090736494949364676
:100130004949291E00001400000040340000000856
:1001400014224114141414140041221408020159F9
:1001500009063E415D594E7C1211127C7F49494986
:10016000363E414141227F4141413E7F494949411B
:100170007F090909013E414151737F0808087F004A
:10018000417F41002040413F017F081422417F40D0
:100190004040407F021C027F7F0408107F3E4141A7
:1001A000413E7F090909063E4151215E7F09192917
:1001B00046264949493203017F01033F4040403F01
:1001C0001F2040201F3F4038403F63140814630342
:1001D000047804036159494D43007F4141410204C1
:1001E000081020004141417F0402010204404040C8
:1001F0004040000307080020545478407F284444BE
:10020000383844444428384444287F3854545418D7
:1002100000087E090218A4A49C787F0804047800D2
:10022000447D40002040403D007F102844000041B4
:100230007F40007C047804787C08040478384444C7
:100240004438FC1824241818242418FC7C080404BE
:1002500008485454542404043F44243C4040207C27
:100260001C2040201C3C4030403C44281028444C7A
:100270009090907C4464544C440008364100000047
:10028000770000004136080002010204023C2623E8
:10029000263C1EA1A161123A4040207A38545455A0
:1002A000592155557941225454784221555478406A
:1002B00020545579400C1E527212395555555939F2
:1002C0005454545939555454580000457C41000247
:1002D000457D420001457C407D1211127DF02825AC
:1002E00028F07C545545002054547C547C0A097FE6
:1002F0004932494949323A4444443A324A484830FA
:100300003A4141217A3A42402078009DA0A07D3DAB
:100310004242423D3D4040403D3C24FF2424487E33
:100320004943662B2FFC2F2BFF0929F620C0887E1E
:10033000090320545479410000447D413048484A23
:1003400032384040227A007A0A0A727D0D19317DD6
:100350002629292F28262929292630484D402038AA
:100360000808080808080808382F10C8ACBA2F1069
:100370002834FA00007B000008142A142222142AD0
:1003800014085500550055AA55AA55AAFF55FF5502
:10039000FF000000FF00101010FF00141414FF00F5
:1003A0001010FF00FF1010F010F0141414FC0014D3
:1003B00014F700FF0000FF00FF1414F404FC1414F1
:1003C00017101F10101F101F1414141F00101010EE
:1003D000F0000000001F101010101F10101010F07F
:1003E00010000000FF101010101010101010FF105F
:1003F000000000FF140000FF00FF00001F101700A6
:1004000000FC04F414141710171414F404F400007E
:10041000FF00F714141414141414F700F714141430
:10042000171410101F101F141414F4141010F010CF
:10043000F000001F101F0000001F14000000FC143B
:100440000000F010F01010FF10FF141414FF14102F
:1004500010101F00000000F010FFFFFFFFFFF0F082
:10046000F0F0F0FFFFFF0000000000FFFF0F0F0F94
:100470000F0F3844443844FC4A4A4A347E0202068C
:1004800006027E027E0263554941633844443C04BF
:10049000407E201E2006027E020299A5E7A5991C37
:1004A0002A492A1C4C7201724C304A4D4D3030485A
:1004B000784830BC625A463D3E494949007E0101B8
:1004C000017E2A2A2A2A2A44445F444440514A444D
:1004D0004040444A51400000FF0103E080FF00001B
:1004E00008086B6B083612362436060F090F060013
:1004F0000018180000001010003040FF0101001F1C
:1005000001011E00191D1712003C3C3C3C0000007C
:1005100000004155544F00004D414E55414C0000E4
:100520006D562020202020202020206D56006D5365
:1005300000004D414E55414C00004155544F0000C4
:100540004749414E474A00005341564544003E3E0C
:1005500000003E3E00003E3E00003E00040EEA6EFB
:10056000450EE96EEF500DE0060E016E006A002E9A
:10057000FED7012EFBD77B0E006E002EFED7EF2E8E
:10058000F3D71200C69E9E964CC4C9FF020EC6BE8B
:1005900005D09EA6FED7000EC5BC010E016E12004E
:1005A00004014B6BC580C5B0FED706C04CF40001FA
:1005B000E9DF4BC44CF4E6DF4AC44CF4E3DFC58406
:1005C000C5B4FED7120044C406F043C404F00A0EBA
:1005D0000401456F0001C2DFAE0E04014A6F000145
:1005E000DFDFD50E04014A6F0001DADF800E04015F
:1005F0004A6F0001D5DFA80E04014A6F0001D0DF69
:100600003F0E04014A6F0001CBDFD30E04014A6F95
:100610000001C6DF04014A6B0001C2DF400E040185
:100620004A6F0001BDDF8D0E04014A6F0001B8DF83
:100630000401432D06D0100E4A6F0001B1DF05D032
:100640000401140E4A6F0001ABDF200E04014A6F53
:100650000001A6DF04014A6B0001A2DFA10E040124
:100660004A6F00019DDFC80E04014A6F000198DF48
:10067000DA0E04014A6F000193DF120E04014A6F83
:1006800000018EDF810E04014A6F000189DF040141
:10069000432D06D09F0E4A6F000182DF05D0040172
:1006A000CF0E4A6F00017CDFD90E04014A6F0001B2
:1006B00077DF0401432D06D0220E4A6F000170DF60
:1006C00005D00401F10E4A6F00016ADFDB0E040160
:1006D0004A6F000165DF400E04014A6F000160DFD0
:1006E000A40E04014A6F00015BDFA60E04014A6FED
:1006F000000156DF2E0E04014A6F000151DFAF0EDC
:1007000004014A6F00014CDF400E086E800E076E38
:10071000B7EF17F0210E04014A6F000141DF040119
:100720004A6B00013DDF7F0E04014A6F000138DF94
:10073000220E04014A6F000133DF04014A6B0001FD
:100740002FDF070E04014A6F00012ADF0401486B06
:10075000476B485103082EE3C580C5B0FED706C0DD
:100760004CF400010FDF400E04014C6F00010ADF62
:100770000401496B49510F0812E3090E4725E96E40
:10078000000E4821EA6EEFCF4AF44AC44CF400014F
:10079000F9DE0401472BD8B4482B492BEBD747513E
:1007A000D8B448074707C584C5B4FED7472BD8B48B
:1007B000482BCFD7000112000401446B436B445116
:1007C00003080BE3090E4325E96E000E4421EA6E8F
:1007D000EF6A432BD8B4442BF2D7000185EF18F011
:1007E00004016C517F08D8A0F7D06E516D254008E8
:1007F00004E2400ED8806D556E6F6DC470F46EC407
:1008000071F4736B090E726F7031006E003200323A
:100810001F0E00160050796B786F7835026E7935AF
:10082000036E0236033602360336023603360236CC
:1008300003360236033602360336800E02160250A5
:100840007227035073236C517227000E732370516B
:10085000070B746F745354E0080ED8807457036A02
:100860007451090FE96E040E0320EA6EEFCF75F4A0
:100870007451715D0DE27151745D016EFF0E006E79
:10088000015204E0D8900032012EFCD700507517B9
:100890006F51010A000105E0010A0FE0020A1AE0A7
:1008A00024D073C403F0040172C4E9FF73C4EAFFE7
:1008B000EF507511EF6E000118D073C403F00401FE
:1008C00072C4E9FF73C4EAFF7551FF0AEF14EF6EBB
:1008D00000010BD073C403F0040172C4E9FF73C4B8
:1008E000EAFFEF507519EF6E000104017451715D5C
:1008F000D8A072D07451715F800E7227000E7323DE
:10090000715107082DE26F51020815E172C4E9FF29
:1009100073C4EAFFEF50FF0A73C4EAFF72C4E9FF31
:10092000EF6E800E7227000E7323080E715F7151F7
:100930000708ECE315D06F2D02D0FF0E01D0000E9A
:10094000766F72C4E9FF73C4EAFF76C4EFFF800ECE
:100950007227000E7323080E715F71510708F1E3CF
:1009600071533AE07151070B746F036A7451110FA0
:10097000E96E040E0320EA6EEFCF77F46F51010A9F
:10098000000105E0010A0FE0020A1AE024D073C456
:1009900003F0040172C4E9FF73C4EAFFEF5077115A
:1009A000EF6E000118D073C403F0040172C4E9FFB4
:1009B00073C4EAFF7751FF0AEF14EF6E00010BD00A
:1009C00073C403F0040172C4E9FF73C4EAFFEF507B
:1009D0007719EF6E000104010001120004016D514E
:1009E0003F08D8A07FD06E516C25800804E2800EAD
:1009F000D8806C556E6F716B090E706F6D31006E23
:100A0000003200321F0E00160050746B736F733586
:100A1000026E7435036E0236033602360336023632
:100A20000336023603360236033602360336800EAC
:100A3000021602507027035071236C517027000E6C
:100A400071236D51070B016E010E726F015204E0AC
:100A5000D8907237012EFCD76F51010A000105E0D2
:100A6000010A17E0020A2AE03CD004016E516E0729
:100A7000000A0DE071C403F07051702BD8B4712BD3
:100A8000E96E03C0EAFFEF507211EF6EEFD700017D
:100A900028D00401721F6E516E07000A0DE071C468
:100AA00003F07051702BD8B4712BE96E03C0EAFFCC
:100AB000EF507215EF6EEFD7000113D004016E51A5
:100AC0006E07000A0DE071C403F07051702BD8B4AA
:100AD000712BE96E03C0EAFFEF507219EF6EEFD78A
:100AE000000104010001120004015B910550FC0F9C
:100AF00035E2040F0001C7EF05F004012FD0040117
:100B00005B8157C45CF458C457F45CC458F4800E3D
:100B1000D8805755FF0F576F21D0800ED880040121
:100B20005755FF0F576F400ED8805855FF0F586F1D
:100B3000010E595D575F12D004015B8157C45DF40B
:100B400058C457F45DC458F4400ED8805855FF0F70
:100B5000586F010E595D585F01D004015BA10CD0A4
:100B600057C46CF458C46DF459C46EF45AC46FF48D
:100B7000000136DE0BD0040157C46CF458C46DF488
:100B800059C46EF45AC46FF4000128DF1200E8243F
:100B9000F76AF736A90FF66E0B0EF7220A00F5502A
:100BA000FA6E0800F550F96EFA0AFE0A1A0B380BB5
:100BB000040169910550FC0F35E2040F00012BEF91
:100BC00006F004012FD00401698165C46AF466C48B
:100BD00065F46AC466F4800ED8806555FF0F656FB2
:100BE000010E675D655F1ED0800ED88004016555DB
:100BF000FF0F656F400ED8806655FF0F666F010EC0
:100C0000675D665F0FD00401698165C46BF466C4DB
:100C100065F46BC466F4400ED8806655FF0F666FAE
:100C200001D0040169A10CD065C46CF466C46DF4F4
:100C300067C46EF468C46FF40001D0DE0BD0040109
:100C400065C46CF466C46DF467C46EF468C46FF474
:100C50000001C6DD1200E824F76AF736710FF66E60
:100C60000C0EF7220A00F550FA6E0800F550F96EE6
:100C7000C20BC60BE80B060C43C457F445C458F42A
:100C800047C459F44BC45AF42FDF04014951452598
:100C90004D6F4A5146214E6F010E4D5F000E4E5B67
:100CA00043C457F44DC458F447C459F44BC45AF4E0
:100CB00000011ADF43C465F445C466F449C467F40F
:100CC0004BC468F475DF0401475143254D6F48510B
:100CD00044214E6F010E4D5F000E4E5B4DC465F416
:100CE00045C466F449C467F44BC468F4000160DF8E
:100CF00012000401446B050E436F466B010E456FF5
:100D0000486B3C0E476F4A6B140E496F4C6B010EDB
:100D10004B6F0001B1DF0401446B030E436F466B60
:100D2000080E456F486B030E476F4A6B050E496FFF
:100D30004C6B010E4B6F00019FDF0401446B440EAE
:100D4000436F466B010E456F486B3C0E476F4A6B15
:100D5000140E496F4C6B010E4B6F00018DDF0401C7
:100D6000446B420E436F466B080E456F486B030E93
:100D7000476F4A6B050E496F4C6B010E4B6F0001BC
:100D80007BDF1200036A04015EC463F403C064F4F1
:100D900060515E2564BF04D0645311E1635D0FE2CE
:100DA00063C465F45FC466F461C467F462C468F444
:100DB0000001FEDE0401632BD8B4642BE9D70001E7
:100DC000120044C420F443C41FF420C41EF41FC402
:100DD0001DF412000401435302E0435101D0010EFF
:100DE000216F0001120046C41AF445C419F448C426
:100DF0001CF447C41BF4120004015A515C03F3CFE6
:100E000001F0F4CF00F05D03F35000265B515C036A
:100E1000F3500020026E000124EF08F00750040197
:100E2000705D03E20850715D01E3E4D00550010AF2
:100E3000000105E0030A11E0010A1CE028D070C49B
:100E400073F471C470F473C471F4800ED88004011B
:100E50007055FF0F706F00011AD0800ED88004010A
:100E60007055FF0F706F400ED8807155FF0F716F76
:100E700000010DD070C474F471C470F474C471F4C2
:100E8000400ED88004017155FF0F716F00010401FD
:100E90007251010A000105E0010A3BE0020A72E01A
:100EA000A8D004017131006E003200321F0E00160E
:100EB0000050766B756F7535026E7635036E0236AF
:100EC000033602360336023603360236033602365E
:100ED000033602360336800E021602507025756FF7
:100EE000000E0320766F090E7525E96E000E76213F
:100EF000EA6E7151070B016E010E006E015204E0A3
:100F0000D8900036012EFCD70050EF10EF6E000194
:100F100070D004017131006E003200321F0E0016D5
:100F20000050766B756F7535026E7635036E02363E
:100F300003360236033602360336023603360236ED
:100F4000033602360336800E021602507025756F86
:100F5000000E0320766F090E7525E96E000E7621CE
:100F6000EA6E7151070B016E010E006E015204E032
:100F7000D8900036012EFCD70050FF0AEF14EF6E18
:100F8000000137D004017131006E003200321F0EB3
:100F900000160050766B756F7535026E7635036EF0
:100FA000023603360236033602360336023603367D
:100FB0000236033602360336800E021602507025C2
:100FC000756F000E0320766F090E7525E96E000E11
:100FD0007621EA6E7151070B016E010E006E01520F
:100FE00004E0D8900036012EFCD70050EF18EF6EC9
:100FF000000104010001120004015651200807E11C
:10100000195305E11A5303E122A101D03AD15651F7
:101010000D0803E11A6B196B34D156510A0807E128
:101020002151080DF3501B27000E1C232AD1576BAA
:1010300057510408D8A09FD05B6B56C45AF45D6B1F
:10104000050E5C6F0001D8D602C05BF401C05AF4F3
:10105000040157510124016E000E0220036E01505D
:10106000F2CF5AF4F29E03C0F7FF000102EC00F049
:1010700004015ABFF28E586F596B59510708D8A016
:1010800078D058A136D0212D16D0575119255A6F36
:10109000000E1A215B6F59511B255C6F000E1C213D
:1010A0005D6F5AC470F45CC471F41DC472F4000125
:1010B000B5DE1DD0040157512103F35019255A6F95
:1010C000000E1A215B6F59512103F3501B255C6FF1
:1010D000000E1C215D6F5AC45EF45CC45FF421C431
:1010E00060F421C461F41DC462F400014BDE3BD006
:1010F00004011D511F5D03E11E51205D35E0212DCE
:1011000016D0575119255A6F000E1A215B6F59518D
:101110001B255C6F000E1C215D6F5AC470F45CC40B
:1011200071F41FC472F4000179DE1DD0040157511F
:101130002103F35019255A6F000E1A215B6F595184
:101140002103F3501B255C6F000E1C215D6F5AC4F8
:101150005EF45CC45FF421C460F421C461F41FC474
:1011600062F400010FDE04015951592BD890583315
:1011700084D7572B5DD71D511F5D03E11E51205DA4
:101180002DE0212D12D0050E19255A6F000E1A21BF
:101190005B6F5AC465F41BC466F4080E676F1FC406
:1011A00068F4000105DD19D004012151050DF3504B
:1011B00019255A6F000E1A215B6F2151080DF3CFCC
:1011C0005CF45AC45EF41BC45FF421C460F45CC4D4
:1011D00061F41FC462F40001D5DD04012151060D44
:1011E000F3501927000E1A235B6B07C05AF42151E4
:1011F000060DF3500724016E000E5B21036E0150B3
:101200001ABF0CD003501A5D09E303E11951015CC8
:1012100005E2036A07C019F403C01AF422A131D011
:101220002151050DF35019255A6F000E1A215B6FDD
:10123000E8BE27D05B5303E15A51075C22E21A6BE8
:10124000196B2151080DF3501B27000E1C235B6BFB
:1012500008C05AF42151080DF3500824016E000E05
:101260005B21036E01501CBF0CD003501C5D09E3D1
:1012700003E11B51015C05E2036A08C01BF403C0D3
:101280001CF4000112000900F5520CE0F6CF45F401
:10129000F7CF46F4F5CF56F4AFDE45C4F6FF46C4AB
:1012A000F7FFF1D7120004014851016A475D03E2DC
:1012B00047C400F00CD0006A080E496F473700366B
:1012C0004851005CD8B0006E0136492FF7D70001B5
:1012D0001200015045C447F4640E0401486F000138
:1012E000E2DF00C045F40150300E08E1040146A3DE
:1012F0000FD046B70DD046B9200E04D00401469752
:1013000046994681012601C056F4000175DE0401AC
:1013100045C447F40A0E486F0001C5DF00C045F41C
:101320000150300E08E1040146B70AD046A108D0AA
:1013300046B9200E0001012601C056F45DDE04010D
:10134000300E452745C456F4000156DE12008E0EBD
:10135000006E4EC401F04DC402F0036A015209E16F
:1013600002C001F0026A080E005E015202E1006A4A
:1013700008D0D89001BE04D0023601360006F9D755
:10138000019E120004015651D8B471D0006E5A511A
:10139000D8B46DD0002604E3810E002668E204D0A4
:1013A0007F0E005E64E363E057C45EF45B515E1B36
:1013B000578F5B8F59515D03F4CF60F458515C0334
:1013C000F4CF03F0F3CF5FF45D03F3506027F450E4
:1013D0005F23000E032259515C03F3506027F45041
:1013E0005F23000E026A0322022257515D03F3506D
:1013F0005F27F4500322000E022257515C03F35082
:101400000326F4500222000E016A012259515B03A7
:10141000F3505F27F4500322000E0222012258519C
:101420005B03F3500326F4500222000E01225751B1
:101430005B03F3500226F4500122002A01BE05D0BE
:101440005F370336023601360006000E5FAF0AD062
:10145000032A02220122015005E1025003E1035058
:1014600001E1002A5EBF018E5EAF019E04D0006ADA
:10147000016A026A036A0001120004015651B608AB
:10148000566F036A57C45AF4578FD890573358335E
:1014900059330332023201320032562FF6D75AAF97
:1014A0000BD0001E011E021E031E002AD8B4012A02
:1014B000D8B4022AD8B4032A0001D4EF0AF0D8B273
:1014C00004D0040EEA6E5E0EE96E006A016A026ADA
:1014D000036A04015E6B5F6B606B616B5D515C1155
:1014E0005B115A112CE0200E626FD8905637573797
:1014F000583759375E375F37603761375D51615D07
:1015000008E15C51605D05E15B515F5D02E15A51AC
:101510005E5D0FE35A515E5F5B51D8A05B3D5F5F3C
:101520005C51D8A05C3D605F5D51D8A05D3D615FBE
:10153000D8800036013602360336622FD6D75EC415
:10154000EFFF5FC4ECFF60C4ECFF61C4ECFF00017F
:101550001200E95004014E6F4D51506F1BE04CC416
:1015600059F44BC458F44AC457F449C456F45D6B5B
:101570005C6B200E5B6F820E5A6F000103DF03C0AD
:101580004CF402C04BF401C04AF400C049F4040119
:10159000502FE5D74CC459F44BC458F44AC457F4FF
:1015A00049C456F4000169D703C04CF402C04BF49F
:1015B00001C04AF400C049F404014CAF0DD04E07FD
:1015C0004E8B491F4A1F4B1F4C1F492BD8B44A2B27
:1015D000D8B44B2BD8B44C2B3B0E556F9A0E546F8E
:1015E000CA0E536F526B0A0E506F4D51D8B44E2B2A
:1015F000D882040EEA6E490EE96E4CC459F44BC40D
:1016000058F44AC457F449C456F455C45DF454C45C
:101610005CF453C45BF452C45AF4000150DF01502F
:10162000005213E104014D29505DD8A402D00001FD
:101630000CD04E510DE00F0B505D01E040E24EBF6B
:101640003ED04EBD05D0200E34D0200E04014E17E2
:101650004EAB0ED04E9B4D51D8A44E0700504E6F4E
:101660002D0E566F0001C8DC04014E51006E4E6B0A
:101670004D51505D0CE100504E6F2E0E566F000123
:10168000BBDC04014E51006E200E4E17000E300ED2
:101690004EAB0FD04E9B4D51D8A44E0700504E6F0D
:1016A0002D0E566F0001A8DC04014E51006E4E6BEA
:1016B000300E002600C056F400019EDC0401D892D2
:1016C00055C459F454C458F453C457F452C456F48E
:1016D0005D6B5C6B5B6B0A0E5A6F0001F0DE03C042
:1016E00055F402C054F401C053F400C052F4040194
:1016F000502F7ED700011200040171517319800B25
:10170000756F71AF05D0701F711F702BD8B4712B1E
:1017100073AF05D0721F731F722BD8B4732B016A7D
:10172000026A006A036A735102E1725118E0100EF6
:10173000746FD89070377137003603367351035C7D
:1017400002E17251005C07E37251005ED8A003060B
:101750007351035ED88001360236742FEAD775AF15
:1017600005D0011E021E012AD8B4022A00015AEF38
:101770000CF004015F9157515B5D006E58515C594C
:10178000036E00C070F4716F036E005071AF08D02B
:10179000000ED8807055006E000E7155036E00501B
:1017A000706F03C071F45551595D006E56515A590E
:1017B000036E00C072F4736F036E005073AF08D0F5
:1017C000000ED8807255006E000E7355036E0050E7
:1017D000016E03AE03D071AF0AD002D071BF08D042
:1017E0000350715D05E303E17051015C01E25F812B
:1017F0005FA118D056C461F455C460F458C456F4BF
:1018000057C455F461C458F460C457F45AC463F41F
:1018100059C462F45CC45AF45BC459F463C45CF404
:1018200062C45BF45A51565D1CE303E15551595DA6
:1018300018E256C465F455C464F45AC456F459C445
:1018400055F465C45AF464C459F458C467F457C4D1
:1018500066F45CC458F45BC457F467C45CF466C4B3
:101860005BF45551595D006E56515A5900C068F4E9
:10187000696F57515B5D006E58515C59036E00C033
:1018800070F4716F036E005071AF08D0000ED880F5
:101890007055006E000E7155036E00506A6F03C0E4
:1018A0006BF469C471F468C470F4736B020E726FE8
:1018B000000122D702C06DF401C06CF4040158513C
:1018C0005C5D08E303E15B51575D04E26F6B010E61
:1018D0006E6F02D06F696E6956515A5D31E303E154
:1018E0005551595D2DE35FA10BD057C470F455C419
:1018F00071F45DC472F400010EEC07F00AD004012B
:1019000055C470F457C471F45DC472F400010EEC58
:1019100007F004016A516C5F6B516D5B6DAF0CD0C9
:101920006E515725016E6F51582101C057F4586F01
:1019300068516C2769516D23552BD8B4562BCCD7E1
:1019400000011AEF0DF004014B51475D2DE14C51A0
:10195000485D2AE14E514A5D10E303E149514D5D76
:101960000CE24AC452F449C451F44EC44AF44DC482
:1019700049F452C44EF451C44DF449514D5D556F74
:101980004A514E59566F010E5527000E562347C433
:1019900065F449C466F455C467F44FC468F40001A3
:1019A000D8EC05F047D004014D51495D2DE14E5171
:1019B0004A5D2AE14C51485D10E303E147514B5D1C
:1019C0000CE248C454F447C453F44CC448F44BC428
:1019D00047F454C44CF453C44BF447514B5D556F1A
:1019E00048514C59566F010E5527000E562347C4D7
:1019F00057F449C458F455C459F44FC45AF400017B
:101A000074EC05F017D0040148C456F447C455F4EB
:101A10004AC458F449C457F44CC45AF44BC459F45A
:101A20004EC45CF44DC45BF450C45EF44FC45DF42A
:101A300000019FD61200016A026A006A036A04016B
:101A4000485102E1475118E0100E496FD8904537D0
:101A50004637003603364851035C02E14751005CCB
:101A600007E34751005ED8A003064851035ED880C3
:101A700001360236492FEAD700013CEF0EF004018F
:101A80004B51D8B4A5D0576F4F51D8B4A1D0575FA0
:101A900005E37F0E5727D8B09BD006D0810E575F45
:101AA000D8A096D0D8B494D057C400F0016A026A86
:101AB000036A566B4CC455F4558F4DC454F44EC450
:101AC00053F4190E576F5251535F0DE2010E545FDC
:101AD0000AE2555F08E2565F06E2562B552B542B5F
:101AE0005251532728D05151545F12E2010E555FD5
:101AF0000FE2565F0DE2562B552B51515427525190
:101B0000532719E3542B17E1552B15E1562B13D00E
:101B100050518009555F0EE2010E565F0BE2562BC5
:101B200050518009552751515427E9E3552BE7E1DE
:101B3000562BE5D70380572F01D00BD0D8905337C1
:101B4000543755375637D890033602360136583752
:101B5000BAD758A106D0D890013202320332583396
:101B600002D0000635E058BF1ED0D8905337543706
:101B7000553756375251535F07E2010E545F04E266
:101B8000555F02E2565F1AE35151545F05E2010EC0
:101B9000555F02E2565F12E350518009555F03E240
:101BA000010E565F0BE3032A09E1022A07E1012A2D
:101BB00005E1002A0DE00132023203324CC457F431
:101BC0005051571B57AF02D0018E06D0019E04D052
:101BD000006A016A026A036A00017DEF0EF08E0E50
:101BE000006E04014F51005E50C402F051C401F078
:101BF000028E005209E0D890025202E1015204E044
:101C000002320132002EF7D750AF05D0011E021E5E
:101C1000012AD8B4022A0001120004014335006EE3
:101C200000360036F80E0016C250C70B0010C26E08
:101C3000010E456F0001AEEC02F004013E6B3D6BFE
:101C4000446B445113080FE3C284C2B4FED7C3509F
:101C50003D27C4503E23010E456F0001AEEC02F05B
:101C60000401442BEED73EC446F43DC445F4486B12
:101C7000140E476F0001DFD602C03EF401C03DF4F0
:101C8000D89004014335036A300FE96E040E032037
:101C9000EA6E3EC44EF43DC44DF40001A7EC09F0D9
:101CA00003C059F402C058F401C057F400C056F400
:101CB00004015D6B5C6B200E5B6F810E5A6F00013F
:101CC000C2EC09F003C04AF402C049F401C048F470
:101CD00000C047F403C04EF402C04DF401C04CF400
:101CE00000C04BF4AA0E0401526FF10E516F020EA8
:101CF000506F7F0E4F6F0001C2D603C052F402C076
:101D000051F401C050F400C04FF469DF02C0ECFF91
:101D1000ED5201C0EFFFA8EF12F0800ED8A202D062
:101D20000401541B0401596B5A6B50C458F45451AC
:101D3000581B4F51D8B4DFD0576F006E5351D8B4F1
:101D4000E3D0575FD8B483D03EE354C45DF45D8FD5
:101D500055C45CF456C45BF45A6BD8905D335C3365
:101D60005B335A33572FF8D758AF03D05981E0D09F
:101D7000599157915989040EEA6E520EE96EEBD0D3
:101D8000599958BF0AD057A113D05D335C335B33E8
:101D90005A33002AD8B4C7D00BD05DBF0CD0D8902E
:101DA0005A375B375C375D370006D8B4BCD0F5D7FF
:101DB000598D6DD0599D50C458F450AF02D05D8FED
:101DC000ABD05D9FA9D053C457F453C400F04F511A
:101DD000575F50C45DF45D8F51C45CF452C45BF432
:101DE0005A6BD8905D335C335B335A33572FF8D737
:101DF00058AF03D059839CD059935791598B040EF7
:101E0000EA6E560EE96EA7D0599B58BF0AD057A16B
:101E100013D05D335C335B335A33002AD8B483D09C
:101E20000BD05DBF0CD0D8905A375B375C375D372D
:101E30000006D8B478D0F5D7598F29D0599F54C40B
:101E400058F454AF02D05D8F67D05D9F65D054C405
:101E50005DF45D8F55C45CF456C45BF458AF04D098
:101E60005D9F598565D059955A6B5791040EEA6E5E
:101E7000520EE96E70D058BF1CD050C458F457A110
:101E800006D05D335C335B335A33002A4CE05AAFE3
:101E90000BD05B2B09E15C2B07E15D2B05E15D338A
:101EA0005C335B33002A3FE059BD84D759BFC6D7A6
:101EB0001CD0800E5D1B5DAF04D03AD054C458F4E2
:101EC0000AD050C458F45D5306E15C5304E15B53FF
:101ED00002E1006A21D05DBF08D0D8905A375B3745
:101EE0005C375D37002EF7D71ED058AF02D05D8F1C
:101EF00013D05D9F11D053C400F054C45DF455C499
:101F00005CF456C45BF408D04FC400F050C45DF4D8
:101F100051C45CF452C45BF45DC401F05CC402F0D3
:101F20005BC403F034D0006A016A026A036A2FD0EE
:101F30005A6B5B1F5C1F5D1F5A1F5A2B05E15B2B01
:101F400003E15C2B01E15D2B59B112D759B354D792
:101F500059B589D7B3D7EF505B2705E35C2B03E175
:101F60005D2BD8B45781ED52EF505C2703E35D2B16
:101F7000D8B45781ED52EF50EFBE01D0800A5D27F3
:101F8000D8B0578159B9FCD659BB3ED774D7000198
:101F900017EF10F0036A04012F51370FE96E040E9A
:101FA0000320EA6E46C44EF445C44DF40001A7EC8C
:101FB00009F0580E0401596F390E586FB40E576F5F
:101FC000790E566F03C05DF402C05CF401C05BF48F
:101FD00000C05AF40001C2EC09F003C04CF402C086
:101FE0004BF401C04AF400C049F4010E04012F254E
:101FF000400DF350D8802F554E6B4D6F0001A7EC6C
:1020000009F0EACF4EF4E9CF4DF4D8924CC452F423
:102010004BC451F44AC450F449C44FF403C056F4BD
:1020200002C055F401C054F400C053F476D64EC437
:10203000EAFF4DC4E9FF03C052F402C051F401C0ED
:1020400050F400C04FF4CBDD01C0EFFF036A040180
:102050002F51370FE96E040E0320EA6EEFCF47F4DD
:10206000036A2F51390FE96E040E0320EA6EEF5018
:10207000475D2AE2010E2F25400DF3CF2EF4036AAF
:102080002F51370FE96E040E0320EA6EEF502E5DDC
:102090001BE01AE3486B2EC447F44A6B030E496FEA
:1020A0004C6B2EC44BF44E6B120E4D6F506B010EE9
:1020B0004F6F000148DC040122B304D000018AEC18
:1020C00003F004012E07DBD7036A2F51370FE96EA7
:1020D000040E0320EA6EEFCF47F4036A2F51390F45
:1020E000E96E040E0320EA6EEF50475D27E026E319
:1020F000036A2F51390FE96E040E0320EA6EEFCF09
:102100002EF4036A2F51370FE96E040E0320EA6E96
:10211000EF502E5D13E2486B2EC447F44A6B020E5B
:10212000496F4C6B2EC44BF44E6B130E4D6F506BBE
:102130004F6B000108DC04012E2BE3D7036A2F51FB
:10214000390F016E040E032203C048F4036A2F51B5
:10215000370FE96E040E0320EA6EEFCF49F448C44E
:10216000EAFF01C0E9FF49C4EFFF0001C9EF12F027
:10217000EACF4DF4E9CF4CF404014639F009486F39
:102180004827E20F496F320F4B6F46510F0B49271B
:1021900049274B27E90F4A6F4A274A2745390F0B32
:1021A0004A274B274A374B374B1F4B3745510F0BAD
:1021B0004B274837070E476F0A0E4A074B27FDE3A8
:1021C00049074A27FDE348074927FDE34707482712
:1021D000FDE3040EEA6E470EE96E070E4C154C9DAA
:1021E000E926000EEA22E9504B0804E1EA5004080F
:1021F00001E14C8DEF50006E08E14CBD06D04CB9AA
:1022000016D04CB702D0200E03D04C874C99300E1C
:102210000026EACF46F4E9CF45F400C056F40001A9
:10222000FCEC07F046C4EAFF45C4E9FF0401EE50A8
:102230004CADD9D70001FDEF12F004015E6B1A0E10
:102240005F6F7F0E606F400E616F626B0001C2ECCA
:1022500006F00401446B010E436F0001E1EC06F04F
:10226000010E0401436F0001EAEC06F00401466B25
:10227000320E456F486B200E476F0001F3EC06F0FD
:10228000200EF66E050EF76E43EC09F00401466B66
:10229000110E456F486B2D0E476F0001F3EC06F0F1
:1022A00035C445F4010E0401466F000169EC09F0E4
:1022B0000401466B2A0E456F486B2D0E476F0001D7
:1022C000F3EC06F036C445F4010E0401466F00013C
:1022D00069EC09F00401466B3B0E456F486B380E04
:1022E000476F0001F3EC06F02E0EF66E050EF76E4A
:1022F00043EC09F00401466B460E456F486B2D0E0A
:10230000476F0001F3EC06F0040122B709D0320E4A
:10231000F66E050EF76E000143EC09F050D0040193
:102320003A0EF66E050EF76E000143EC09F004015B
:102330004E6B2DC44DF40001A7EC09F003C042F42C
:1023400002C041F401C040F400C03FF40401466BF8
:10235000640E456F486B2D0E476F0001F3EC06F0DD
:1023600042C459F441C458F440C457F43FC456F42D
:1023700004015D6B5C6B5B6B7E0E5A6F0001C2ECFF
:1023800009F003C046F402C045F401C044F400C0A3
:1023900043F4890EE96E03C04CF402C04BF401C053
:1023A0004AF400C049F4010E04014D6F0001A9EC8C
:1023B0000AF0530E0401566F0001FCEC07F0040113
:1023C000466B5A0E456F486B370E476F0001F3ECB2
:1023D00006F0400EF66E050EF76E43EC09F00401B0
:1023E000486B010E476F4A6B3F0E496F4C6B140EE2
:1023F0004B6F4E6B3F0E4D6F506B010E4F6F0001D8
:10240000A3EC0CF00401486B140E476F4A6B3F0EAF
:10241000496F4C6B140E4B6F4E6B370E4D6F506BFC
:10242000010E4F6F0001A3EC0CF00401486B140E79
:10243000476F4A6B370E496F4C6B170E4B6F4E6BE5
:10244000370E4D6F506B010E4F6F0001A3EC0CF077
:102450000401486B170E476F4A6B370E496F4C6B80
:10246000170E4B6F4E6B3F0E4D6F506B010E4F6F43
:102470000001A3EC0CF00401486B170E476F4A6B88
:102480003F0E496F4C6B2B0E4B6F4E6B3F0E4D6FDB
:10249000506B010E4F6F0001A3EC0CF00401486B70
:1024A0002B0E476F4A6B3F0E496F4C6B2B0E4B6FD9
:1024B0004E6B370E4D6F506B010E4F6F0001A3EC4A
:1024C0000CF00401486B2B0E476F4A6B370E496FB7
:1024D0004C6B320E4B6F4E6B370E4D6F506B010EC7
:1024E0004F6F0001A3EC0CF00401486B320E476FF4
:1024F0004A6B3F0E496F4C6B320E4B6F4E6B370E73
:102500004D6F506B010E4F6F0001A3EC0CF00401F6
:10251000486B320E476F4A6B3F0E496F4C6B370E5C
:102520004B6F4E6B3F0E4D6F506B010E4F6F0001A6
:10253000A3EC0CF004012F6B2F51010861E393967B
:102540008A9693988A982FC443F400010DEF0EF0F9
:102550000401292D02D093968A862951020802E1AE
:1025600093988A883051325F3151335BD8902F3540
:10257000036A300FE96E040E0320EA6EECCF44F4D8
:10258000ED52EFCF43F444C446F443C445F4000194
:1025900001D5020E0401436F0001EAEC06F00401CC
:1025A0002F530AE1466B010E456F486B1A0E476FB9
:1025B0000001F3EC06F004012F2D0AD0466B440E07
:1025C000456F486B1A0E476F0001F3EC06F00401EB
:1025D000D8902F35036A300FE96E040E0320EA6E9F
:1025E000ECCF44F4ED52EFCF43F4090EE96E44C44E
:1025F00046F443C445F40001BBD504012F2B9CD7FE
:1026000000018AEC03F004013151090805E2FF0AD8
:102610000BE13051280808E3335109080FE2FF0AA3
:1026200003E1325128080AE2336B326B33C431F4D0
:1026300032C430F4000179EC06F004012283000179
:1026400093EF18F094948B8493908A8043C445F45C
:10265000AEEC02F0040143510A0802E20A0E436F95
:1026600093908A9043C445F40001AEEC02F093903D
:102670008A8044C445F4AEEC02F093908A900A0E2E
:102680000401456F0001AEEC02F094948B9493909A
:102690008A90120004013151080807E2FF0A03E1A1
:1026A0003051C30802E2010E296F292D12D09490F7
:1026B0008B8093968A8693988A983151335D09E38B
:1026C00003E13251305D05E294908B9093968A96A7
:1026D000296B3351080809E2FF0A03E13251C308AC
:1026E00004E2295302E1020E296F2951020820E178
:1026F00094908B8093988A8893968A96020E436F63
:10270000FA0E456F0001AEEC02F00401432FF8D73A
:10271000020E296F3351315D0BE303E13051325D1D
:1027200007E294908B9093968A9693988A98296B57
:10273000346B00010AEF19F0938A0401229B81BADD
:10274000228B006A22B9008A22510018200BD8B4CB
:1027500007D122BB0ED0938C81BC02D0442B09D070
:102760002A51030806E044074451010802E3010E20
:10277000446F3C511A08D8B0F3D0FF0A04E13B5132
:102780005708D8B0EDD02A2D28D044511D0802E2B8
:102790001E0E446F110E5E6F2D0E5F6F0C0E606F7C
:1027A000080E616F626B0001C2EC06F08AEC03F068
:1027B0000401466B110E456F486B2D0E476F0001EB
:1027C000F3EC06F044C445F4010E0401466F000129
:1027D00069EC09F08AEC03F004012A51020828E1AF
:1027E0004451310802E2320E446F2A0E5E6F2D0E04
:1027F0005F6F0C0E606F080E616F626B0001C2ECC0
:1028000006F08AEC03F00401466B2A0E456F486B14
:102810002D0E476F0001F3EC06F044C445F4010EA1
:102820000401466F000169EC09F08AEC03F0040131
:102830002A51030832E14451010801E2446B3A0E87
:102840005E6F2D0E5F6F420E606F080E616F626BE0
:102850000001C2EC06F08AEC03F00401466B460E60
:10286000456F486B2D0E476F0001F3EC06F0040135
:10287000442D09D0120EF66E050EF76E000143ECE2
:1028800009F008D00401180EF66E050EF76E00016F
:1028900043EC09F08AEC03F004012A5104085EE1DC
:1028A0004451050802E2060E446F640E5E6F2D0E61
:1028B0005F6F180E606F080E616F626B0001C2ECF3
:1028C00006F08AEC03F00401466B640E456F486B1A
:1028D0002D0E476F0001F3EC06F004014E6B44C46B
:1028E0004DF40001A7EC09F003C042F402C041F42A
:1028F00001C040F400C03FF442C459F441C458F44C
:1029000040C457F43FC456F404015D6B5C6B5B6BD1
:102910007E0E5A6F0001C2EC09F003C048F402C0F9
:1029200047F401C046F400C045F4890EE96E03C0C7
:102930004CF402C04BF401C04AF400C049F4010E4B
:1029400004014D6F0001A9EC0AF0530E0401566F0B
:102950000001FCEC07F08AEC03F004013C6B3B6BDC
:10296000229922BB228944C401F000011200938EF7
:1029700081AE23D1938E81BEFDD7010E04012A279B
:10298000228522B705D02A51030802E2050E2A6FDC
:1029900094948B84640E456F0001AEEC02F0949425
:1029A0008B9404012A51040870E3050E5E6F2D0E0E
:1029B0005F6F0C0E606F080E616F626B0001C2ECFE
:1029C00006F01E0E04015E6F2D0E5F6F0C0E606F21
:1029D000080E616F626B0001C2EC06F03A0E040152
:1029E0005E6F2D0E5F6F0C0E606F080E616F626B75
:1029F0000001C2EC06F0040122A739D0466B640E38
:102A0000456F486B2D0E476F0001F3EC06F042C492
:102A100059F441C458F440C457F43FC456F4040177
:102A20005D6B5C6B5B6B7E0E5A6F0001C2EC09F054
:102A300003C046F402C045F401C044F400C043F4AE
:102A4000890EE96E03C04CF402C04BF401C04AF495
:102A500000C049F4010E04014D6F0001A9EC0AF019
:102A6000530E0401566F0001FCEC07F00401000155
:102A70008AEC03F0020E0401436F960E456F0001CD
:102A8000AEEC02F00401432FF8D72A510408D8B065
:102A900093D0F250006EF29E050EA96E35C4A8FFC9
:102AA000A69CA69EA6840F01550EA76EAA0EA76E21
:102AB000A682A6B2FED7A6940050F212F2CF00F082
:102AC000F29E0A0EA96E36C4A8FFA69CA69EA684F6
:102AD000550EA76EAA0EA76EA682A6B2FED7A69422
:102AE0000050F212000E040122B7010E436FF250A3
:102AF000006EF29E0F0EA96E43C4A8FFA69CA69E70
:102B0000A6840F01550EA76EAA0EA76EA682A6B2C6
:102B1000FED7A6940050F212F2CF00F0F29E140EEF
:102B2000A96E2DC4A8FFA69CA69EA684550EA76ECE
:102B3000AA0EA76EA682A6B2FED7A6940050F212E5
:102B400004015E6B1A0E5F6F7F0E606F400E616F47
:102B5000010E626F0001C2EC06F00401446B436B8E
:102B60000001E1EC06F0020E0401436F0001EAEC03
:102B700006F00401466B280E456F486B476F000155
:102B8000F3EC06F0480EF66E050EF76E43EC09F016
:102B90008AEC03F0040E0401436FFA0E456F000146
:102BA000AEEC02F00401432FF8D794908B902A6B7F
:102BB0002B6B3C69DC0E3B6F000104012A2D1CD0FD
:102BC00035C444F40001B8DD01C035F4040122A588
:102BD00013D0466B050E456F486B2D0E476F0001F5
:102BE000F3EC06F04E0EF66E050EF76E43EC09F0B0
:102BF0008AEC03F0040122952A5102081CE136C434
:102C000044F4000199DD01C036F4040122A513D07B
:102C1000466B1E0E456F486B2D0E476F0001F3EC9F
:102C200006F0520EF66E050EF76E43EC09F08AECD4
:102C300003F0040122952A51030820E1000E22B777
:102C4000010E436F446F000177DD0401229701B04C
:102C5000228722A513D0466B3A0E456F486B2D0E86
:102C6000476F0001F3EC06F0560EF66E050EF76E98
:102C700043EC09F08AEC03F0040122952A51040880
:102C80001CE12DC444F4000157DD01C02DF4040102
:102C900022A513D0466B5D0E456F486B2D0E476F16
:102CA0000001F3EC06F05A0EF66E050EF76E43ECDB
:102CB00009F08AEC03F004012295010E3B27000E77
:102CC0003C233C511A0809E2FF0A03E13B51580832
:102CD00004E21B0E3C6F580E3B6F00011DEF19F014
:102CE000F86AD09E948694880C0EC86E280EC66E24
:102CF000C79EC79C056A04011A6B196B1C6B1B6B82
:102D00001E691D6920691F69010E216F22812293AE
:102D100022952297296B2A6B2B6B2C6B020E2D6F41
:102D20002E6B2F6BF00E346F0A0E356F1E0E366F42
:102D30003C69DC0E3B6F3E6B3D6B2299C180C182CA
:102D4000C184C196D1D00E400900028080800CC0A1
:102D50000001800123C000028001010BC00001803E
:102D6000400FC000038018303006C0000880030701
:102D70000604000207061EC0000580808081C3C1D2
:102D800004C0C0038080808007C00006C08008C0E7
:102D90000006C08009C00006C08006C00007C080D1
:102DA00007C0000280808007C0C0038080C0800E02
:102DB000C00006C08011C0001880E0F8FCFEFFFFD4
:102DC0001F0F0F070707C7C7CFCFCFC7C3C2C000AA
:102DD000000006C0FF04C0000380C0F0FC07C0FF75
:102DE0000480FEF8E08005C00006C0FF0580C0E05A
:102DF000F0F8FE08C0FF178000E0F8FCFEFFFF3F80
:102E00001F0F070707C7C7CFCFCFC7C7C2C0C00AAA
:102E1000C00006C0FF11C000088003071F3F3F7FAE
:102E20007E7C04C0F80380FBFBFF06C07F038000AC
:102E3000000006C07F0E800060787E7F7F7F3F0F9E
:102E4000030101071F04C07F05807E786000000633
:102E5000C07F07803F1F0F0703010706C07F09805F
:102E60000001070F1F3F7F7F7C04C0F80380FBFB3E
:102E7000FF07C07F03800040F004C0F80980FC7C9D
:102E80007E7F3F1F1F070390C0000480E0E0E0C08A
:102E90007DC00004C001048080C0C0C03CC00002EE
:102EA0008040401FC000068002020000002018C0C1
:102EB0000004800303010127C000038008080821E3
:102EC000C00003800E0C0C25C0000F8080C0E0F015
:102ED000F8FCFE000103070F1F3F7F0204230000E0
:102EE0000404370000408000000EF86E2D0EF76ECF
:102EF000460EF66E0900F550006E000A13E0090058
:102F0000F550016EE8BE05D00F0BEA6E0900F5CF53
:102F1000E9FF01BC090001AC0900F5CFEEFF004E4E
:102F2000E9D7F9D7F86A030E926EE60E936E180E83
:102F3000946E93908A9094908B9094948B949396A3
:102F40008A9693988A98938A229981BA2289C19CF9
:102F5000C28CC29EC18EC280C190C192C184C196F2
:102F6000020E436F780E446F0001E3EF02F0F2CFE0
:102F700043F4F29E050EA96EA69CA69EA680A850BC
:102F8000040143BFF28E356F3551630818E2030E1A
:102F9000356FF250006EF29E050EA96E35C4A8FF83
:102FA000A69CA69EA6840F01550EA76EAA0EA76E1C
:102FB000A682A6B2FED7A6940050F2120401F2CF68
:102FC00043F4F29E0A0EA96EA69CA69EA680A85067
:102FD00043BFF28E366F3651630818E2050E366F26
:102FE000F250006EF29E0A0EA96E36C4A8FFA69C8F
:102FF000A69EA6840F01550EA76EAA0EA76EA682E6
:10300000A6B2FED7A6940050F2120401F2CF43F408
:10301000F29E0F0EA96EA69CA69EA680A85043BF46
:10302000F28E016E229701B02287000E22B7010EA8
:1030300001081BE22297000E22B7010E436FF250E7
:10304000006EF29E0F0EA96E43C4A8FFA69CA69E1A
:10305000A6840F01550EA76EAA0EA76EA682A6B271
:10306000FED7A6940050F2120401F2CF43F4F29E70
:10307000140EA96EA69CA69EA680A85043BFF28EF1
:103080002D6F2D51060818E2020E2D6FF250006EC2
:10309000F29E140EA96E2DC4A8FFA69CA69EA6841F
:1030A0000F01550EA76EAA0EA76EA682A6B2FED776
:1030B000A6940050F2120401810E4A6F0001D0EC78
:1030C00002F0B90E04014A6F0001D0EC02F08AEC64
:1030D00003F094948B84020E0401436FFA0E456F43
:1030E0000001AEEC02F00401432FF8D794948B94C6
:1030F000080E436FFA0E456F0001AEEC02F00401BA
:10310000432FF8D70001DCEF03F079EC06F004015F
:103110003C51FE0812E2FF0A03E13B51DB080DE2DD
:1031200000011DEF11F0010E0401342734510A088B
:1031300002E20A0E346F3C6B3B6B31510208D8B08F
:1031400063D0FF0A03E13051E8085EE23351020820
:103150005BE2FF0A03E13251E80856E235511E08EE
:1031600053E33651320850E32B534EE122B71AD0C5
:10317000938481A417D035C443F436C444F40001C9
:1031800022EC13F004013C69DC0E3B6F01D0F3D755
:10319000020E436FFA0E456F0001AEEC02F004011F
:1031A000432FF8D722A730D0938281A212D09382E6
:1031B00081A20FD0640E456F0001AEEC02F0010E4B
:1031C00004012C272D51050DF3502C5DD8B001D0F2
:1031D000EED72D51050DF3502C5D01E22C6B2D51D6
:1031E000050DF3502C5D10E3938281A20DD035C400
:1031F00043F436C444F4000122EC13F004013C69AA
:10320000DC0E3B6F01D0F3D73451090804E2000112
:103210004AEF13F004012B5312E0296B94908B803A
:1032200093968A9693988A9893908A90010E436F0A
:103230000001EAEC06F0B7EF14F00401ECD7938E2E
:1032400081AE28D0020E436FFA0E456F0001AEEC3E
:1032500002F00401432FF8D7938E81AE11D0010EF6
:103260002B6F2BC42AF422952AB1228594948B8447
:10327000640E456F0001AEEC02F094948B9404014F
:10328000938E81AE07D0640E456F0001AEEC02F064
:103290000401F6D72C6B3B2BD8B43C2B39D7030059
:020000040030CA
:0E00000000220C0E000181000FC00FE00F4027
:00000001FF
;PIC18F252
;CRC=325F  CREATED="04-Mar-25 21:13"
