:10000000F0EF16F0120FF66E000EF7220900F55011
:10001000120000000000003E5B4F5B3E3E6B4F6BEA
:100020003E1C3E7C3E1C183C7E3C181C577D571CD9
:100030001C5E7F5E1C00183C1800FFE7C3E7FF0052
:1000400018241800FFE7DBE7FF30483A060E2629A0
:10005000792926407F050507407F05253F5A3CE763
:100060003C5A7F3E1C1C08081C1C3E7F14227F2229
:10007000145F5F005F5F06097F017F006689956AF4
:10008000606060606094A2FFA29408047E0408107F
:10009000207E201008082A1C08081C2A08081E10A8
:1000A0001010100C1E0C1E0C30383E3830060E3E60
:1000B0000E06000000000000005F000000070007BF
:1000C00000147F147F14242A7F2A122313086462E9
:1000D00036495620500008070300001C224100004A
:1000E00041221C002A1C7F1C2A08083E08080080A8
:1000F0007030000808080808000060600020100840
:1001000004023E5149453E00427F40007249494940
:10011000462141494D331814127F10274545453972
:100120003C4A494931412111090736494949364676
:100130004949291E00001400000040340000000856
:1001400014224114141414140041221408020159F9
:1001500009063E415D594E7C1211127C7F49494986
:10016000363E414141227F4141413E7F494949411B
:100170007F090909013E414151737F0808087F004A
:10018000417F41002040413F017F081422417F40D0
:100190004040407F021C027F7F0408107F3E4141A7
:1001A000413E7F090909063E4151215E7F09192917
:1001B00046264949493203017F01033F4040403F01
:1001C0001F2040201F3F4038403F63140814630342
:1001D000047804036159494D43007F4141410204C1
:1001E000081020004141417F0402010204404040C8
:1001F0004040000307080020545478407F284444BE
:10020000383844444428384444287F3854545418D7
:1002100000087E090218A4A49C787F0804047800D2
:10022000447D40002040403D007F102844000041B4
:100230007F40007C047804787C08040478384444C7
:100240004438FC1824241818242418FC7C080404BE
:1002500008485454542404043F44243C4040207C27
:100260001C2040201C3C4030403C44281028444C7A
:100270009090907C4464544C440008364100000047
:10028000770000004136080002010204023C2623E8
:10029000263C1EA1A161123A4040207A38545455A0
:1002A000592155557941225454784221555478406A
:1002B00020545579400C1E527212395555555939F2
:1002C0005454545939555454580000457C41000247
:1002D000457D420001457C407D1211127DF02825AC
:1002E00028F07C545545002054547C547C0A097FE6
:1002F0004932494949323A4444443A324A484830FA
:100300003A4141217A3A42402078009DA0A07D3DAB
:100310004242423D3D4040403D3C24FF2424487E33
:100320004943662B2FFC2F2BFF0929F620C0887E1E
:10033000090320545479410000447D413048484A23
:1003400032384040227A007A0A0A727D0D19317DD6
:100350002629292F28262929292630484D402038AA
:100360000808080808080808382F10C8ACBA2F1069
:100370002834FA00007B000008142A142222142AD0
:1003800014085500550055AA55AA55AAFF55FF5502
:10039000FF000000FF00101010FF00141414FF00F5
:1003A0001010FF00FF1010F010F0141414FC0014D3
:1003B00014F700FF0000FF00FF1414F404FC1414F1
:1003C00017101F10101F101F1414141F00101010EE
:1003D000F0000000001F101010101F10101010F07F
:1003E00010000000FF101010101010101010FF105F
:1003F000000000FF140000FF00FF00001F101700A6
:1004000000FC04F414141710171414F404F400007E
:10041000FF00F714141414141414F700F714141430
:10042000171410101F101F141414F4141010F010CF
:10043000F000001F101F0000001F14000000FC143B
:100440000000F010F01010FF10FF141414FF14102F
:1004500010101F00000000F010FFFFFFFFFFF0F082
:10046000F0F0F0FFFFFF0000000000FFFF0F0F0F94
:100470000F0F3844443844FC4A4A4A347E0202068C
:1004800006027E027E0263554941633844443C04BF
:10049000407E201E2006027E020299A5E7A5991C37
:1004A0002A492A1C4C7201724C304A4D4D3030485A
:1004B000784830BC625A463D3E494949007E0101B8
:1004C000017E2A2A2A2A2A44445F444440514A444D
:1004D0004040444A51400000FF0103E080FF00001B
:1004E00008086B6B083612362436060F090F060013
:1004F0000018180000001010003040FF0101001F1C
:1005000001011E00191D1712003C3C3C3C0000007C
:1005100000004155544F00004D414E55414C0000E4
:100520006D562020202020202020206D56006D5365
:1005300000004D414E55414C00004155544F0000C4
:1005400056703A25312E32665600534156454400C6
:100550003E3E00003E3E00003E3E00003E00040ED7
:10056000EA6E490EE96EEF500DE0060E016E006A6C
:10057000002EFED7012EFBD77B0E006E002EFED77D
:10058000EF2EF3D71200C69E9E9650C4C9FF020EEE
:10059000C6BE05D09EA6FED7000EC5BC010E016EDC
:1005A000120004014F6BC580C5B0FED706C050F4E1
:1005B0000001E9DF4FC450F4E6DF4EC450F4E3DF3E
:1005C000C584C5B4FED7120048C406F047C404F081
:1005D0000A0E0401496F0001C2DFAE0E04014E6F26
:1005E0000001DFDFD50E04014E6F0001DADF800E5F
:1005F00004014E6F0001D5DFA80E04014E6F00010B
:10060000D0DF3F0E04014E6F0001CBDFD30E04019B
:100610004E6F0001C6DF04014E6B0001C2DF400EC9
:1006200004014E6F0001BDDF8D0E04014E6F00010D
:10063000B8DF0401472D06D0100E4E6F0001B1DF68
:1006400005D00401140E4E6F0001ABDF200E040133
:100650004E6F0001A6DF04014E6B0001A2DFA10E68
:1006600004014E6F00019DDFC80E04014E6F0001B2
:1006700098DFDA0E04014E6F000193DF120E0401C1
:100680004E6F00018EDF810E04014E6F000189DF85
:100690000401472D06D09F0E4E6F000182DF05D06A
:1006A0000401CF0E4E6F00017CDFD90E04014E6FA6
:1006B000000177DF0401472D06D0220E4E6F0001A6
:1006C00070DF05D00401F10E4E6F00016ADFDB0E12
:1006D00004014E6F000165DF400E04014E6F000102
:1006E00060DFA40E04014E6F00015BDFA60E040163
:1006F0004E6F000156DF2E0E04014E6F000151DFD8
:10070000AF0E04014E6F00014CDF400E086E800EEC
:10071000076E3BEF18F0210E04014E6F000141DF20
:1007200004014E6B00013DDF7F0E04014E6F00019E
:1007300038DF220E04014E6F000133DF04014E6BDF
:1007400000012FDF070E04014E6F00012ADF0401B4
:100750004C6B4B6B4C5103082EE3C580C5B0FED7E4
:1007600006C050F400010FDF400E0401506F00017D
:100770000ADF04014D6B4D510F0812E3090E4B25A2
:10078000E96E000E4C21EA6EEFCF4EF44EC450F4E9
:100790000001F9DE04014B2BD8B44C2B4D2BEBD7C9
:1007A0004B51D8B44C074B07C584C5B4FED74B2B6F
:1007B000D8B44C2BCFD7000112000401486B476B13
:1007C000485103080BE3090E4725E96E000E482146
:1007D000EA6EEF6A472BD8B4482BF2D7000109EF35
:1007E00019F0040170517F08D8A0F7D0725171251B
:1007F000400804E2400ED8807155726F71C474F4E1
:1008000072C475F4776B090E766F7431006E003226
:1008100000321F0E001600507D6B7C6F7C35026E1F
:100820007D35036E02360336023603360236033652
:10083000023603360236033602360336800E0216BF
:10084000025076270350772370517627000E7723C6
:100850007451070B786F785354E0080ED88078579E
:10086000036A7851090FE96E040E0320EA6EEFCF98
:1008700079F47851755D0DE27551785D016EFF0E6A
:10088000006E015204E0D8900032012EFCD70050D7
:1008900079177351010A000105E0010A0FE0020A0D
:1008A0001AE024D077C403F0040176C4E9FF77C4CA
:1008B000EAFFEF507911EF6E000118D077C403F012
:1008C000040176C4E9FF77C4EAFF7951FF0AEF1407
:1008D000EF6E00010BD077C403F0040176C4E9FF8A
:1008E00077C4EAFFEF507919EF6E000104017851E7
:1008F000755DD8A072D07851755F800E7627000E96
:100900007723755107082DE27351020815E176C46B
:10091000E9FF77C4EAFFEF50FF0A77C4EAFF76C425
:10092000E9FFEF6E800E7627000E7723080E755FC5
:1009300075510708ECE315D0732D02D0FF0E01D0DE
:10094000000E7A6F76C4E9FF77C4EAFF7AC4EFFF3E
:10095000800E7627000E7723080E755F7551070805
:10096000F1E375533AE07551070B786F036A7851DC
:10097000110FE96E040E0320EA6EEFCF7BF4735182
:10098000010A000105E0010A0FE0020A1AE024D082
:1009900077C403F0040176C4E9FF77C4EAFFEF509F
:1009A0007B11EF6E000118D077C403F0040176C408
:1009B000E9FF77C4EAFF7B51FF0AEF14EF6E0001F5
:1009C0000BD077C403F0040176C4E9FF77C4EAFFD3
:1009D000EF507B19EF6E00010401000112000401C9
:1009E00071513F08D8A07FD072517025800804E271
:1009F000800ED8807055726F756B090E746F7131EF
:100A0000006E003200321F0E00160050786B776FB8
:100A10007735026E7835036E0236033602360336BA
:100A20000236033602360336023603360236033602
:100A3000800E0216025074270350752370517427DC
:100A4000000E75237151070B016E010E766F015276
:100A500004E0D8907637012EFCD77351010A0001CB
:100A600005E0010A17E0020A2AE03CD004017251B5
:100A70007207000A0DE075C403F07451742BD8B4EA
:100A8000752BE96E03C0EAFFEF507611EF6EEFD7DA
:100A9000000128D00401761F72517207000A0DE090
:100AA00075C403F07451742BD8B4752BE96E03C070
:100AB000EAFFEF507615EF6EEFD7000113D0040177
:100AC00072517207000A0DE075C403F07451742B63
:100AD000D8B4752BE96E03C0EAFFEF507619EF6EBC
:100AE000EFD7000104010001120004015F910550DD
:100AF000FC0F35E2040F0001C8EF05F004012FD010
:100B000004015F815BC460F45CC45BF460C45CF4AA
:100B1000800ED8805B55FF0F5B6F21D0800ED88090
:100B200004015B55FF0F5B6F400ED8805C55FF0FD3
:100B30005C6F010E5D5D5B5F12D004015F815BC481
:100B400061F45CC45BF461C45CF4400ED8805C5515
:100B5000FF0F5C6F010E5D5D5C5F01D004015FA162
:100B60000CD05BC470F45CC471F45DC472F45EC4F8
:100B700073F4000136DE0BD004015BC470F45CC476
:100B800071F45DC472F45EC473F4000128DF1200D6
:100B9000E824F76AF736AB0FF66E0B0EF7220A0061
:100BA000F550FA6E0800F550F96EFC0A000B1C0BAC
:100BB0003A0B04016D910550FC0F35E2040F000162
:100BC0002CEF06F004012FD004016D8169C46EF48E
:100BD0006AC469F46EC46AF4800ED8806955FF0F48
:100BE000696F010E6B5D695F1ED0800ED8800401B5
:100BF0006955FF0F696F400ED8806A55FF0F6A6F05
:100C0000010E6B5D6A5F0FD004016D8169C46FF4E2
:100C10006AC469F46FC46AF4400ED8806A55FF0F45
:100C20006A6F01D004016DA10CD069C470F46AC46C
:100C300071F46BC472F46CC473F40001D0DE0BD099
:100C4000040169C470F46AC471F46BC472F46CC4B6
:100C500073F40001C6DD1200E824F76AF736730F5B
:100C6000F66E0C0EF7220A00F550FA6E0800F550E9
:100C7000F96EC40BC80BEA0B080C47C45BF449C4FB
:100C80005CF44BC45DF44FC45EF42FDF04014D519E
:100C90004925516F4E514A21526F010E515F000E8E
:100CA000525B47C45BF451C45CF44BC45DF44FC465
:100CB0005EF400011ADF47C469F449C46AF44DC404
:100CC0006BF44FC46CF475DF04014B514725516F31
:100CD0004C514821526F010E515F000E525B51C4BE
:100CE00069F449C46AF44DC46BF44FC46CF4000158
:100CF00060DF12000401486B070E476F4A6B010E5C
:100D0000496F4C6B3A0E4B6F4E6B140E4D6F506B20
:100D1000010E4F6F0001B1DF0401486B050E476FF4
:100D20004A6B080E496F4C6B030E4B6F4E6B050EF2
:100D30004D6F506B010E4F6F00019FDF0401486B38
:100D4000460E476F4A6B010E496F4C6B3A0E4B6F64
:100D50004E6B140E4D6F506B010E4F6F00018DDF07
:100D60000401486B440E476F4A6B080E496F4C6B89
:100D7000030E4B6F4E6B050E4D6F506B010E4F6F98
:100D800000017BDF0BEF19F0036A040162C467F412
:100D900003C068F46451622568BF04D0685311E150
:100DA000675D0FE267C469F463C46AF465C46BF4F9
:100DB00066C46CF40001FDDE0401672BD8B4682B17
:100DC000E9D70001120048C420F447C41FF420C42E
:100DD0001EF41FC41DF412000401475302E04751E2
:100DE00001D0010E216F000112004AC41AF449C457
:100DF00019F44CC41CF44BC41BF4120004015E51E2
:100E00006003F3CF01F0F4CF00F06103F35000264C
:100E10005F516003F3500020026E000126EF08F0DE
:100E200007500401745D03E20850755D01E3E4D0EE
:100E30000550010A000105E0030A11E0010A1CE067
:100E400028D074C477F475C474F477C475F4800E34
:100E5000D88004017455FF0F746F00011AD0800E02
:100E6000D88004017455FF0F746F400ED8807555FB
:100E7000FF0F756F00010DD074C478F475C474F45D
:100E800078C475F4400ED88004017555FF0F756F56
:100E9000000104017651010A000105E0010A3BE06E
:100EA000020A72E0A8D004017531006E00320032EF
:100EB0001F0E001600507A6B796F7935026E7A3505
:100EC000036E023603360236033602360336023626
:100ED00003360236033602360336800E02160250FF
:100EE0007425796F000E03207A6F090E7925E96E5B
:100EF000000E7A21EA6E7551070B016E010E006E2D
:100F0000015204E0D8900036012EFCD70050EF10BB
:100F1000EF6E000170D004017531006E00320032B6
:100F20001F0E001600507A6B796F7935026E7A3594
:100F3000036E0236033602360336023603360236B5
:100F400003360236033602360336800E021602508E
:100F50007425796F000E03207A6F090E7925E96EEA
:100F6000000E7A21EA6E7551070B016E010E006EBC
:100F7000015204E0D8900036012EFCD70050FF0A41
:100F8000EF14EF6E000137D004017531006E0032AE
:100F900000321F0E001600507A6B796F7935026EA1
:100FA0007A35036E023603360236033602360336CE
:100FB000023603360236033602360336800E021638
:100FC00002507425796F000E03207A6F090E79257F
:100FD000E96E000E7A21EA6E7551070B016E010E63
:100FE000006E015204E0D8900036012EFCD700506C
:100FF000EF18EF6E000104010001120004015A51C4
:10100000200807E1195305E11A5303E122A101D099
:101010003AD15A510D0803E11A6B196B34D15A5168
:101020000A0807E12151080DF3501B27000E1C236D
:101030002AD15B6B5B510408D8A09FD05F6B5AC468
:101040005EF4616B050E606F0001D8D602C05FF4DC
:1010500001C05EF404015B510124016E000E022008
:10106000036E0150F2CF5EF4F29E03C0F7FF000161
:1010700002EC00F004015EBFF28E5C6F5D6B5D51AF
:101080000708D8A078D05CA136D0212D16D05B51AE
:1010900019255E6F000E1A215F6F5D511B25606F71
:1010A000000E1C21616F5EC474F460C475F41DC42D
:1010B00076F40001B5DE1DD004015B512103F3502D
:1010C00019255E6F000E1A215F6F5D512103F350E9
:1010D0001B25606F000E1C21616F5EC462F460C44A
:1010E00063F421C464F421C465F41DC466F40001F2
:1010F0004BDE3BD004011D511F5D03E11E51205DFD
:1011000035E0212D16D05B5119255E6F000E1A2196
:101110005F6F5D511B25606F000E1C21616F5EC407
:1011200074F460C475F41FC476F4000179DE1DD038
:1011300004015B512103F35019255E6F000E1A2143
:101140005F6F5D512103F3501B25606F000E1C2162
:10115000616F5EC462F460C463F421C464F421C4AA
:1011600065F41FC466F400010FDE04015D515D2BC0
:10117000D8905C3384D75B2B5DD71D511F5D03E195
:101180001E51205D2DE0212D12D0050E19255E6F18
:10119000000E1A215F6F5EC469F41BC46AF4080E66
:1011A0006B6F1FC46CF4000104DD19D004012151E0
:1011B000050DF35019255E6F000E1A215F6F215146
:1011C000080DF3CF60F45EC462F41BC463F421C461
:1011D00064F460C465F41FC466F40001D5DD040145
:1011E0002151060DF3501927000E1A235F6B07C01B
:1011F0005EF42151060DF3500724016E000E5F21AD
:10120000036E01501ABF0CD003501A5D09E303E1CD
:101210001951015C05E2036A07C019F403C01AF40E
:1012200022A131D02151050DF35019255E6F000E1A
:101230001A215F6FE8BE27D05F5303E15E51075C60
:1012400022E21A6B196B2151080DF3501B27000E77
:101250001C235F6B08C05EF42151080DF350082475
:10126000016E000E5F21036E01501CBF0CD00350B5
:101270001C5D09E303E11B51015C05E2036A08C040
:101280001BF403C01CF4000112000900F5520CE02D
:10129000F6CF49F4F7CF4AF4F5CF5AF4AFDE49C49C
:1012A000F6FF4AC4F7FFF1D7120004015351016A57
:1012B000525D03E252C400F00CD0006A080E546F75
:1012C000523700365351005CD8B0006E0136542FAF
:1012D000F7D700011200015049C452F4640E040112
:1012E000536F0001E2DF00C049F40150300E08E105
:1012F00004014AA30FD04AB70DD04AB9200E04D03A
:1013000004014A974A994A81012601C05AF4000112
:1013100075DE040149C452F40A0E536F0001C5DFA3
:1013200000C049F40150300E08E104014AB70AD068
:101330004AA108D04AB9200E0001012601C05AF482
:101340005DDE0401300E492749C45AF4000156DE1F
:1013500012008E0E006E52C401F051C402F0036AF6
:10136000015209E102C001F0026A080E005E01525A
:1013700002E1006A08D0D89001BE04D002360136DE
:101380000006F9D7019E120004015A51D8B471D059
:10139000006E5E51D8B46DD0002604E3810E0026A5
:1013A00068E204D07F0E005E64E363E05BC462F435
:1013B0005F51621B5B8F5F8F5D516103F4CF64F4FB
:1013C0005C516003F4CF03F0F3CF63F46103F35097
:1013D0006427F4506323000E03225D516003F35031
:1013E0006427F4506323000E026A032202225B5139
:1013F0006103F3506327F4500322000E02225B5175
:101400006003F3500326F4500222000E016A012209
:101410005D515F03F3506327F4500322000E022254
:1014200001225C515F03F3500326F4500222000EA8
:1014300001225B515F03F3500226F4500122002A7F
:1014400001BE05D063370336023601360006000EB2
:1014500063AF0AD0032A02220122015005E10250A3
:1014600003E1035001E1002A62BF018E62AF019ED9
:1014700004D0006A016A026A036A000112000401D2
:101480005A51B6085A6F036A5BC45EF45B8FD890FA
:101490005B335C335D3303320232013200325A2F48
:1014A000F6D75EAF0BD0001E011E021E031E002ADF
:1014B000D8B4012AD8B4022AD8B4032A0001D6EF3E
:1014C0000AF0D8B204D0040EEA6E620EE96E006A29
:1014D000016A026A036A0401626B636B646B656B89
:1014E000615160115F115E112CE0200E666FD89083
:1014F0005A375B375C375D37623763376437653738
:101500006151655D08E16051645D05E15F51635DB6
:1015100002E15E51625D0FE35E51625F5F51D8A0F0
:101520005F3D635F6051D8A0603D645F6151D8A0AA
:10153000613D655FD8800036013602360336662F7E
:10154000D6D762C4EFFF63C4ECFF64C4ECFF65C48C
:10155000ECFF00011200E9500401526F5151546F29
:101560001BE050C45DF44FC45CF44EC45BF44DC446
:101570005AF4616B606B200E5F6F820E5E6F00012C
:1015800003DF03C050F402C04FF401C04EF400C0AA
:101590004DF40401542FE5D750C45DF44FC45CF4FE
:1015A0004EC45BF44DC45AF4000169D703C050F433
:1015B00002C04FF401C04EF400C04DF4040150AF1E
:1015C0000DD05207528B4D1F4E1F4F1F501F4D2BDA
:1015D000D8B44E2BD8B44F2BD8B4502B3B0E596FE8
:1015E0009A0E586FCA0E576F566B0A0E546F5151B0
:1015F000D8B4522BD882040EEA6E4D0EE96E50C458
:101600005DF44FC45CF44EC45BF44DC45AF459C449
:1016100061F458C460F457C45FF456C45EF400012A
:1016200050DF0150005213E104015129545DD8A448
:1016300002D000010CD052510DE00F0B545D01E0BF
:1016400040E252BF3ED052BD05D0200E34D0200E15
:101650000401521752AB0ED0529B5151D8A45207DD
:101660000050526F2D0E5A6F0001C8DC0401525118
:10167000006E526B5151545D0CE10050526F2E0EB2
:101680005A6F0001BBDC04015251006E200E52174C
:10169000000E300E52AB0FD0529B5151D8A45207BE
:1016A0000050526F2D0E5A6F0001A8DC04015251F8
:1016B000006E526B300E002600C05AF400019EDC12
:1016C0000401D89259C45DF458C45CF457C45BF467
:1016D00056C45AF4616B606B5F6B0A0E5E6F00015B
:1016E000F0DE03C059F402C058F401C057F400C042
:1016F00056F40401542F7ED70001120004014F510B
:10170000D8B4A5D05B6F5351D8B4A1D05B5F05E3CB
:101710007F0E5B27D8B09BD006D0810E5B5FD8A030
:1017200096D0D8B494D05BC400F0016A026A036A10
:101730005A6B50C459F4598F51C458F452C457F4D9
:10174000190E5B6F5651575F0DE2010E585F0AE2AA
:10175000595F08E25A5F06E25A2B592B582B565113
:10176000572728D05551585F12E2010E595F0FE2FA
:101770005A5F0DE25A2B592B55515827565157276E
:1017800019E3582B17E1592B15E15A2B13D054515B
:101790008009595F0EE2010E5A5F0BE25A2B545139
:1017A0008009592755515827E9E3592BE7E15A2B6E
:1017B000E5D703805B2F01D00BD0D890573758372F
:1017C00059375A37D8900336023601365C37BAD7C4
:1017D0005CA106D0D8900132023203325C3302D0D1
:1017E000000635E05CBF1ED0D890573758375937C0
:1017F0005A375651575F07E2010E585F04E2595FAE
:1018000002E25A5F1AE35551585F05E2010E595F33
:1018100002E25A5F12E354518009595F03E2010E5C
:101820005A5F0BE3032A09E1022A07E1012A05E1D5
:10183000002A0DE001320232033250C45BF45451ED
:101840005B1B5BAF02D0018E06D0019E04D0006A04
:10185000016A026A036A000112000900F6CF4CF423
:10186000F7CF4DF4F5CF5AF4FEEC07F04CC4F6FF79
:101870004DC4F7FF04014B2F01D002D00001EDD77A
:1018800000015FEF12F0040175517719800B796F39
:1018900075AF05D0741F751F742BD8B4752B77AF37
:1018A00005D0761F771F762BD8B4772B016A026A92
:1018B000006A036A775102E1765118E0100E786FE2
:1018C000D89074377537003603367751035C02E1E0
:1018D0007651005C07E37651005ED8A0030677518D
:1018E000035ED88001360236782FEAD779AF05D06B
:1018F000011E021E012AD8B4022A000121EF0DF0B8
:10190000040163915B515F5D006E5C516059036E31
:1019100000C074F4756F036E005075AF08D0000EF0
:10192000D8807455006E000E7555036E0050746FAC
:1019300003C075F459515D5D006E5A515E59036ED6
:1019400000C076F4776F036E005077AF08D0000EBA
:10195000D8807655006E000E7755036E0050016EEC
:1019600003AE03D075AF0AD002D075BF08D00350C4
:10197000755D05E303E17451015C01E2638163A1DC
:1019800018D05AC465F459C464F45CC45AF45BC4F6
:1019900059F465C45CF464C45BF45EC467F45DC46C
:1019A00066F460C45EF45FC45DF467C460F466C44A
:1019B0005FF45E515A5D1CE303E159515D5D18E22D
:1019C0005AC469F459C468F45EC45AF45DC459F445
:1019D00069C45EF468C45DF45CC46BF45BC46AF40F
:1019E00060C45CF45FC45BF46BC460F46AC45FF40D
:1019F00059515D5D006E5A515E5900C06CF46D6FB7
:101A00005B515F5D006E5C516059036E00C074F401
:101A1000756F036E005075AF08D0000ED8807455F6
:101A2000006E000E7555036E00506E6F03C06FF4AC
:101A30006DC475F46CC474F4776B020E766F00019C
:101A400022D702C071F401C070F404015C51605DE2
:101A500008E303E15F515B5D04E2736B010E726F9B
:101A600002D0736972695A515E5D31E303E15951E5
:101A70005D5D2DE363A10BD05BC474F459C475F4B0
:101A800061C476F4000110EC07F00AD0040159C4D7
:101A900074F45BC475F461C476F4000110EC07F0D3
:101AA00004016E51705F6F51715B71AF0CD0725158
:101AB0005B25016E73515C2101C05BF45C6F6C515E
:101AC00070276D517123592BD8B45A2BCCD70001F4
:101AD000E1EF0DF004014F514B5D2DE150514C5D94
:101AE0002AE152514E5D10E303E14D51515D0CE28C
:101AF0004EC456F44DC455F452C44EF451C44DF482
:101B000056C452F455C451F44D51515D596F4E5164
:101B100052595A6F010E5927000E5A234BC469F4CB
:101B20004DC46AF459C46BF453C46CF40001D9EC8D
:101B300005F047D0040151514D5D2DE152514E5DEC
:101B40002AE150514C5D10E303E14B514F5D0CE233
:101B50004CC458F44BC457F450C44CF44FC44BF429
:101B600058C450F457C44FF44B514F5D596F4C510A
:101B700050595A6F010E5927000E5A234BC45BF47B
:101B80004DC45CF459C45DF453C45EF4000175ECBB
:101B900005F017D004014CC45AF44BC459F44EC498
:101BA0005CF44DC45BF450C45EF44FC45DF452C4A5
:101BB00060F451C45FF454C462F453C461F400018E
:101BC0009FD61200016A026A006A036A04014C513E
:101BD00002E14B5118E0100E4D6FD89049374A374B
:101BE000003603364C51035C02E14B51005C07E3C5
:101BF0004B51005ED8A003064C51035ED8800136DD
:101C000002364D2FEAD7000152EF0EF08E0E006E15
:101C100004015351005E54C402F055C401F0028E19
:101C2000005209E0D890025202E1015204E002326F
:101C30000132002EF7D754AF05D0011E021E012A33
:101C4000D8B4022A0001120004014735006E0036A4
:101C50000036F80E0016C250C70B0010C26E010EFF
:101C6000496F0001AFEC02F004013E6B3D6B486B25
:101C7000485113080EE3C284C2B4FED7C3503D27B7
:101C8000C4503E23A60E006E002EFED70000482B47
:101C9000EFD73EC44AF43DC449F44C6B140E4B6F6D
:101CA000000190D702C03EF401C03DF4D890040179
:101CB0004735036A300FE96E040E0320EA6E3EC416
:101CC00052F43DC451F40001A9EC09F003C05DF4E5
:101CD00002C05CF401C05BF400C05AF40401616B03
:101CE000606B200E5F6F810E5E6F0001C4EC09F027
:101CF00003C04EF402C04DF401C04CF400C04BF4DC
:101D000003C052F402C051F401C050F400C04FF4BB
:101D1000AA0E0401566FF10E556F020E546F7F0E1E
:101D2000536F0001EBDC03C056F402C055F401C050
:101D300054F400C053F46ADF02C0ECFFED5201C05E
:101D4000EFFF0401472D1BD0D8904735036A300FB1
:101D5000E96E040E0320EA6EECCF03F0ED52EFCFF4
:101D600051F403C052F40001A9EC09F003C042F49D
:101D700002C041F401C040F400C03FF4040100017E
:101D80002EEF13F0800ED8A202D00401581B0401DC
:101D90005D6B5E6B54C45CF458515C1B5351D8B4FA
:101DA000DFD05B6F006E5751D8B4E3D05B5FD8B41F
:101DB00083D03EE358C461F4618F59C460F45AC4BF
:101DC0005FF45E6BD890613360335F335E335B2FBB
:101DD000F8D75CAF03D05D81E0D05D915B915D8908
:101DE000040EEA6E560EE96EEBD05D995CBF0AD028
:101DF0005BA113D0613360335F335E33002AD8B404
:101E0000C7D00BD061BF0CD0D8905E375F3760373A
:101E100061370006D8B4BCD0F5D75D8D6DD05D9D1F
:101E200054C45CF454AF02D0618FABD0619FA9D091
:101E300057C45BF457C400F053515B5F54C461F462
:101E4000618F55C460F456C45FF45E6BD890613303
:101E500060335F335E335B2FF8D75CAF03D05D83B5
:101E60009CD05D935B915D8B040EEA6E5A0EE96E19
:101E7000A7D05D9B5CBF0AD05BA113D061336033F8
:101E80005F335E33002AD8B483D00BD061BF0CD04F
:101E9000D8905E375F37603761370006D8B478D0A6
:101EA000F5D75D8F29D05D9F58C45CF458AF02D040
:101EB000618F67D0619F65D058C461F4618F59C448
:101EC00060F45AC45FF45CAF04D0619F5D8565D057
:101ED0005D955E6B5B91040EEA6E560EE96E70D0F6
:101EE0005CBF1CD054C45CF45BA106D0613360338A
:101EF0005F335E33002A4CE05EAF0BD05F2B09E10D
:101F0000602B07E1612B05E1613360335F33002A09
:101F10003FE05DBD84D75DBFC6D71CD0800E611B7E
:101F200061AF04D03AD058C45CF40AD054C45CF415
:101F3000615306E1605304E15F5302E1006A21D07E
:101F400061BF08D0D8905E375F3760376137002EA9
:101F5000F7D71ED05CAF02D0618F13D0619F11D034
:101F600057C400F058C461F459C460F45AC45FF413
:101F700008D053C400F054C461F455C460F456C48E
:101F80005FF461C401F060C402F05FC403F034D0B8
:101F9000006A016A026A036A2FD05E6B5F1F601FCE
:101FA000611F5E1F5E2B05E15F2B03E1602B01E1EA
:101FB000612B5DB112D75DB354D75DB589D7B3D767
:101FC000EF505F2705E3602B03E1612BD8B45B8101
:101FD000ED52EF50602703E3612BD8B45B81ED52E3
:101FE000EF50EFBE01D0800A6127D8B05B815DB9A8
:101FF000FCD65DBB3ED774D700015FEF10F0040143
:102000004A51080809E2FF0A03E14951C20804E203
:10201000090E4A6FC30E496F036A2F51370FE96EDD
:10202000040E0320EA6E4AC452F449C451F400017C
:10203000A9EC09F0580E04015D6F390E5C6FB40E07
:102040005B6F790E5A6F03C061F402C060F401C087
:102050005FF400C05EF40001C4EC09F003C050F46A
:1020600002C04FF401C04EF400C04DF4010E040153
:102070002F25516F800E526F51C453F4000155EC5F
:1020800009F0010E015C0401526B516F0001A9ECD3
:1020900009F0EACF52F4E9CF51F4D89250C456F483
:1020A0004FC455F44EC454F44DC453F403C05AF411
:1020B00002C059F401C058F400C057F463D652C4AA
:1020C000EAFF51C4E9FF03C056F402C055F401C051
:1020D00054F400C053F49ADD01C0EFFF036A040119
:1020E0002F51370FE96E040E0320EA6EEFCF4BF449
:1020F000036A2F51390FE96E040E0320EA6EEF5088
:102100004B5D34E2010E2F254B6F800E526F4BC496
:1021100053F4000155EC09F001C02EF4036A0401E8
:102120002F51370FE96E040E0320EA6EEF502E5D3B
:102130001DE01CE34C6B2EC44BF44E6B030E4D6F35
:10214000506B2EC44FF4526B120E516F546B010E34
:10215000536F0001BFDC040122B304D000018BECFB
:1021600003F004012E070001D9D70401036A2F519F
:10217000370FE96E040E0320EA6EEFCF4BF4036ACB
:102180002F51390FE96E040E0320EA6EEF504B5DBC
:1021900027E026E3036A2F51390FE96E040E03206E
:1021A000EA6EEFCF2EF4036A2F51370FE96E040E5B
:1021B0000320EA6EEF502E5D13E24C6B2EC44BF4FD
:1021C0004E6B020E4D6F506B2EC44FF4526B130EBC
:1021D000516F546B536B00017DDC04012E2BE3D750
:1021E000036A2F51390F016E040E032203C04CF411
:1021F000036A2F51370FE96E040E0320EA6EEFCF0A
:102200004DF44CC4EAFF01C0E9FF4DC4EFFF0001EB
:102210004FEF13F0EACF51F4E9CF50F404014A39FB
:10222000F0094C6F4C27E20F4D6F320F4F6F4A5140
:102230000F0B4D274D274F27E90F4E6F4E274E2787
:1022400049390F0B4E274F274E374F374F1F4F3708
:1022500049510F0B4F274C37070E4B6F0A0E4E0795
:102260004F27FDE34D074E27FDE34C074D27FDE3C8
:102270004B074C27FDE3040EEA6E4B0EE96E070E8A
:102280005015509DE926000EEA22E9504F0804E15E
:10229000EA50040801E1508DEF50006E08E150BD96
:1022A00006D050B916D050B702D0200E03D05087B8
:1022B0005099300E0026EACF4AF4E9CF49F400C025
:1022C0005AF40001FEEC07F04AC4EAFF49C4E9FFF2
:1022D0000401EE5050ADD9D7000183EF13F0040193
:1022E000626B1A0E636F7F0E646F400E656F666BD4
:1022F0000001C4EC06F00401486B010E476F0001B9
:10230000E3EC06F0010E0401476F0001ECEC06F06F
:1023100004014A6B320E496F4C6B200E4B6F00016B
:10232000F5EC06F0200EF66E050EF76E45EC09F0A2
:1023300004014A6B110E496F4C6B2D0E4B6F00015F
:10234000F5EC06F035C449F4010E04014A6F0001B2
:102350006BEC09F004014A6B2A0E496F4C6B2D0E91
:102360004B6F0001F5EC06F036C449F4010E040190
:102370004A6F00016BEC09F004014A6B3B0E496F98
:102380004C6B380E4B6F0001F5EC06F02E0EF66E1E
:10239000050EF76E45EC09F004014A6B460E496FD5
:1023A0004C6B2D0E4B6F0001F5EC06F0040122B7CB
:1023B00009D0320EF66E050EF76E000145EC09F0FD
:1023C00050D004013A0EF66E050EF76E000145EC92
:1023D00009F00401526B2DC451F40001A9EC09F07D
:1023E00003C046F402C045F401C044F400C043F405
:1023F00004014A6B640E496F4C6B2D0E4B6F00014C
:10240000F5EC06F046C45DF445C45CF444C45BF4EA
:1024100043C45AF40401616B606B5F6B7E0E5E6FA8
:102420000001C4EC09F003C04AF402C049F401C041
:1024300048F400C047F4890EE96E03C050F402C0AE
:102440004FF401C04EF400C04DF4010E0401516F71
:102450000001ABEC0AF0530E04015A6F0001FEECD0
:1024600007F004014A6B4C0E496F4C6B370E4B6FF3
:102470000001F5EC06F042C452F441C451F440C4EA
:1024800050F43FC44FF40401566B556B7A0E546FF1
:10249000880E536F00017EEC0BF003C04AF402C0BB
:1024A00049F401C048F400C047F4400EF66E050E32
:1024B000F76E030E04014B6F00012DEF0CF0890E37
:1024C000E96E4AC450F449C44FF448C44EF447C4BA
:1024D0004DF4020E0401516F0001ABEC0AF0560EF0
:1024E00004015A6F0001FEEC07F004014C6B010E71
:1024F0004B6F4E6B3F0E4D6F506B140E4F6F526B08
:102500003F0E516F546B010E536F00016AEC0DF0DA
:1025100004014C6B140E4B6F4E6B3F0E4D6F506BA6
:10252000140E4F6F526B370E516F546B010E536F79
:1025300000016AEC0DF004014C6B140E4B6F4E6BF6
:10254000370E4D6F506B170E4F6F526B370E516F2A
:10255000546B010E536F00016AEC0DF004014C6BDB
:10256000170E4B6F4E6B370E4D6F506B170E4F6F34
:10257000526B3F0E516F546B010E536F00016AECAA
:102580000DF004014C6B170E4B6F4E6B3F0E4D6FF1
:10259000506B2B0E4F6F526B3F0E516F546B010EF1
:1025A000536F00016AEC0DF004014C6B2B0E4B6F66
:1025B0004E6B3F0E4D6F506B2B0E4F6F526B370EA5
:1025C000516F546B010E536F00016AEC0DF0040162
:1025D0004C6B2B0E4B6F4E6B370E4D6F506B320E9C
:1025E0004F6F526B370E516F546B010E536F0001DA
:1025F0006AEC0DF004014C6B320E4B6F4E6B3F0ECC
:102600004D6F506B320E4F6F526B370E516F546BD4
:10261000010E536F00016AEC0DF004014C6B320E99
:102620004B6F4E6B3F0E4D6F506B370E4F6F526BB3
:102630003F0E516F546B010E536F00016AEC0DF0A9
:1026400004012F6B2F51010861E393968A969398AA
:102650008A982FC447F4000124EF0EF00401292DBD
:1026600002D093968A862951020802E193988A88BB
:102670003051325F3151335BD8902F35036A300FC0
:10268000E96E040E0320EA6EECCF48F4ED52EFCF72
:1026900047F448C44AF447C449F40001B0D4020ED8
:1026A0000401476F0001ECEC06F004012F2D0AD065
:1026B0004A6B010E496F4C6B1A0E4B6F0001F5EC23
:1026C00006F004012F530AE14A6B440E496F4C6B2C
:1026D0001A0E4B6F0001F5EC06F00401D8902F356F
:1026E000036A300FE96E040E0320EA6EECCF48F463
:1026F000ED52EFCF47F4090EE96E48C44AF447C4DF
:1027000049F4000187D504012F2B9CD700018BECE5
:1027100003F004013151080805E2FF0A0BE13051D2
:10272000F60808E3335108080BE2FF0A03E13251CF
:10273000F60806E2336B326B33C431F432C430F442
:102740002283000117EF19F094948B8493908A8070
:1027500047C449F4AFEC02F0040147510A0802E211
:102760000A0E476F93908A9047C449F40001AFEC7A
:1027700002F093908A8048C449F4AFEC02F0939041
:102780008A900A0E0401496F0001AFEC02F09494A4
:102790008B9493908A90120004013151080807E24B
:1027A000FF0A03E13051C30802E2010E296F292D0F
:1027B00012D094908B8093968A8693988A98315100
:1027C000335D09E303E13251305D05E294908B9073
:1027D00093968A96296B3351080809E2FF0A03E1B0
:1027E0003251C30804E2295302E1020E296F295134
:1027F000020820E194908B8093988A8893968A9619
:10280000020E476FFA0E496F0001AFEC02F00401AF
:10281000472FF8D7020E296F3351315D0BE303E1E7
:102820003051325D07E294908B9093968A969398FC
:102830008A98296B346B00018EEF19F0938A04019A
:10284000229B81BA228B006A22B9008A2251001889
:10285000200BD8B407D122BB0ED0938C81BC02D000
:10286000482B09D02A51030806E0480748510108BF
:1028700002E3010E486F3C511208D8B0F3D0FF0AB2
:1028800004E13B518708D8B0EDD02A2D28D048511B
:102890001D0802E21E0E486F110E626F2D0E636F4F
:1028A0000C0E646F080E656F666B0001C4EC06F0D9
:1028B0008BEC03F004014A6B110E496F4C6B2D0E2B
:1028C0004B6F0001F5EC06F048C449F4010E040119
:1028D0004A6F00016BEC09F08BEC03F004012A5104
:1028E000020828E14851310802E2320E486F2A0EF0
:1028F000626F2D0E636F0C0E646F080E656F666B52
:102900000001C4EC06F08BEC03F004014A6B2A0EC4
:10291000496F4C6B2D0E4B6F0001F5EC06F048C46F
:1029200049F4010E04014A6F00016BEC09F08BECD5
:1029300003F004012A51030832E14851010801E281
:10294000486B3A0E626F2D0E636F420E646F080E75
:10295000656F666B0001C4EC06F08BEC03F00401BC
:102960004A6B460E496F4C6B2D0E4B6F0001F5EC18
:1029700006F00401482D09D0120EF66E050EF76E12
:10298000000145EC09F008D00401180EF66E050EA2
:10299000F76E000145EC09F08BEC03F004012A51BD
:1029A00004085EE14851050802E2060E486F640E15
:1029B000626F2D0E636F180E646F080E656F666B85
:1029C0000001C4EC06F08BEC03F004014A6B640ECA
:1029D000496F4C6B2D0E4B6F0001F5EC06F00401B6
:1029E000526B48C451F40001A9EC09F003C046F44D
:1029F00002C045F401C044F400C043F446C45DF491
:102A000045C45CF444C45BF443C45AF40401616BF0
:102A1000606B5F6B7E0E5E6F0001C4EC09F003C05B
:102A20004CF402C04BF401C04AF400C049F4890ED2
:102A3000E96E03C050F402C04FF401C04EF400C070
:102A40004DF4010E0401516F0001ABEC0AF0530E7E
:102A500004015A6F0001FEEC07F08BEC03F0040157
:102A60003C6B3B6B229922BB228948C401F00001D8
:102A70001200938E81AE2DD1938E81BEFDD7010EB3
:102A800004012A27228522B705D02A51030802E231
:102A9000050E2A6F94948B84640E496F0001AFEC8D
:102AA00002F094948B9404012A51040870E3050EFB
:102AB000626F2D0E636F0C0E646F080E656F666B90
:102AC0000001C4EC06F01E0E0401626F2D0E636F50
:102AD0000C0E646F080E656F666B0001C4EC06F0A7
:102AE0003A0E0401626F2D0E636F0C0E646F080EB8
:102AF000656F666B0001C4EC06F0040122A739D0B3
:102B00004A6B640E496F4C6B2D0E4B6F0001F5EC58
:102B100006F046C45DF445C45CF444C45BF443C4AD
:102B20005AF40401616B606B5F6B7E0E5E6F000197
:102B3000C4EC09F003C04AF402C049F401C048F4EF
:102B400000C047F4890EE96E03C050F402C04FF490
:102B500001C04EF400C04DF4010E0401516F00019C
:102B6000ABEC0AF0530E04015A6F0001FEEC07F0C3
:102B7000040100018BEC03F0020E0401476F960E76
:102B8000496F0001AFEC02F00401472FF8D72A513A
:102B90000408D8B09DD035511D0802E21E0E356FD5
:102BA0003651310802E2320E366FF250006EF29E5C
:102BB000050EA96E35C4A8FFA69CA69EA6840F018B
:102BC000550EA76EAA0EA76EA682A6B2FED7A69431
:102BD0000050F212F2CF00F0F29E0A0EA96E36C437
:102BE000A8FFA69CA69EA684550EA76EAA0EA76E49
:102BF000A682A6B2FED7A6940050F212000E0401DF
:102C000022B7010E476FF250006EF29E0F0EA96EB2
:102C100047C4A8FFA69CA69EA6840F01550EA76ECA
:102C2000AA0EA76EA682A6B2FED7A6940050F212F4
:102C3000F2CF00F0F29E140EA96E2DC4A8FFA69C40
:102C4000A69EA684550EA76EAA0EA76EA682A6B251
:102C5000FED7A6940050F2120401626B1A0E636F45
:102C60007F0E646F400E656F010E666F0001C4EC4D
:102C700006F00401486B476B0001E3EC06F0020E1E
:102C80000401476F0001ECEC06F004014A6B280ECA
:102C9000496F4C6B4B6F0001F5EC06F04A0EF66E77
:102CA000050EF76E45EC09F08BEC03F0040E040101
:102CB000476FFA0E496F0001AFEC02F00401472F95
:102CC000F8D794908B902A6B2B6B3C69DC0E3B6F92
:102CD000000104012A2D1CD035C448F40001AEDDEA
:102CE00001C035F4040122A513D04A6B050E496FCB
:102CF0004C6B2D0E4B6F0001F5EC06F0500EF66E8E
:102D0000050EF76E45EC09F08BEC03F004012295FB
:102D10002A5102081CE136C448F400018FDD01C0CD
:102D200036F4040122A513D04A6B1E0E496F4C6B7A
:102D30002D0E4B6F0001F5EC06F0540EF66E050EED
:102D4000F76E45EC09F08BEC03F0040122952A5153
:102D5000030820E1000E22B7010E476F486F000103
:102D60006DDD0401229701B0228722A513D04A6BA2
:102D70003A0E496F4C6B2D0E4B6F0001F5EC06F0CF
:102D8000580EF66E050EF76E45EC09F08BEC03F06D
:102D9000040122952A5104081CE12DC448F40001C5
:102DA0004DDD01C02DF4040122A513D04A6B5D0E48
:102DB000496F4C6B2D0E4B6F0001F5EC06F05C0E6D
:102DC000F66E050EF76E45EC09F08BEC03F004018E
:102DD0002295010E3B27000E3C230001A1EF19F0C4
:102DE000F86AD09E948694880C0EC86E280EC66E23
:102DF000C79EC79C056A04011A6B196B1C6B1B6B81
:102E00001E691D6920691F69010E216F22812293AD
:102E100022952297296B2A6B2B6B2C6B020E2D6F40
:102E20002E6B2F6BF00E346F010E356F020E366F66
:102E30003C69DC0E3B6F3E6B3D6B2299426B416BF4
:102E4000406B3F6BC180C182C184C196D1D00E401E
:102E50000900028080800CC00001800123C00002B4
:102E60008001010BC0000180400FC00003801830BA
:102E70003006C000088003070604000207061EC0D3
:102E8000000580808081C3C104C0C0038080808031
:102E900007C00006C08008C00006C08009C0000648
:102EA000C08006C00007C08007C000028080800785
:102EB000C0C0038080C0800EC00006C08011C0006A
:102EC0001880E0F8FCFEFFFF1F0F0F070707C7C7BA
:102ED000CFCFCFC7C3C2C000000006C0FF04C000F0
:102EE0000380C0F0FC07C0FF0480FEF8E08005C04E
:102EF0000006C0FF0580C0E0F0F8FE08C0FF1780A4
:102F000000E0F8FCFEFFFF3F1F0F070707C7C7CF12
:102F1000CFCFC7C7C2C0C00AC00006C0FF11C000E3
:102F2000088003071F3F3F7F7E7C04C0F80380FBBF
:102F3000FBFF06C07F038000000006C07F0E8000FC
:102F400060787E7F7F7F3F0F030101071F04C07FF2
:102F500005807E7860000006C07F07803F1F0F0756
:102F600003010706C07F09800001070F1F3F7F7F15
:102F70007C04C0F80380FBFBFF07C07F0380004098
:102F8000F004C0F80980FC7C7E7F3F1F1F07039080
:102F9000C0000480E0E0E0C07DC00004C001048007
:102FA00080C0C0C03CC000028040401FC0000680FE
:102FB00002020000002018C0000480030301012762
:102FC000C000038008080821C00003800E0C0C25F7
:102FD000C0000F8080C0E0F0F8FCFE000103070F86
:102FE0001F3F7F02042300000404370000804000DC
:102FF000000EF86E2E0EF76E4E0EF66E0900F550AE
:10300000006E000A13E00900F550016EE8BE05D01D
:103010000F0BEA6E0900F5CFE9FF01BC090001AC16
:103020000900F5CFEEFF004EE9D7F9D7F86A030E95
:10303000926EE60E936E180E946E93908A90949012
:103040008B9094948B9493968A9693988A98938A6B
:10305000229981BA2289C19CC28CC29EC18EC28033
:10306000C190C192C184C196020E476F780E486F1D
:103070000001E4EF02F0F2CF47F4F29E050EA96ED4
:10308000A69CA69EA680A850040147BFF28E356F6D
:103090003551630818E2030E356FF250006EF29E50
:1030A000050EA96E35C4A8FFA69CA69EA6840F0196
:1030B000550EA76EAA0EA76EA682A6B2FED7A6943C
:1030C0000050F2120401F2CF47F4F29E0A0EA96EEC
:1030D000A69CA69EA680A85047BFF28E366F36519A
:1030E000630818E2050E366FF250006EF29E0A0E6B
:1030F000A96E36C4A8FFA69CA69EA6840F01550EF5
:10310000A76EAA0EA76EA682A6B2FED7A6940050FE
:10311000F2120401F2CF47F4F29E0F0EA96EA69CA4
:10312000A69EA680A85047BFF28E016E229701B0DE
:103130002287000E22B7010E01081BE22297000E23
:1031400022B7010E476FF250006EF29E0F0EA96E6D
:1031500047C4A8FFA69CA69EA6840F01550EA76E85
:10316000AA0EA76EA682A6B2FED7A6940050F212AF
:103170000401F2CF47F4F29E140EA96EA69CA69EFF
:10318000A680A85047BFF28E2D6F2D51060818E279
:10319000020E2D6FF250006EF29E140EA96E2DC419
:1031A000A8FFA69CA69EA6840F01550EA76EAA0E88
:1031B000A76EA682A6B2FED7A6940050F212040112
:1031C000810E4E6F0001D1EC02F0B90E04014E6F7A
:1031D0000001D1EC02F08BEC03F094948B84020E8E
:1031E0000401476FFA0E496F0001AFEC02F00401D1
:1031F000472FF8D794948B94080E476FFA0E496FB7
:103200000001AFEC02F00401472FF8D70001DDEF19
:1032100003F07AEF06F004013C51FE0812E2FF0AC7
:1032200003E13B51DB080DE200016FEF11F0010EED
:103230000401342734510A0802E20A0E346F3C6B51
:103240003B6B31510208D8B063D0FF0A03E1305123
:10325000E8085EE2335102085BE2FF0A03E1325103
:10326000E80856E235511E0853E33651320850E360
:103270002B534EE122B71AD0938481A417D035C4C2
:1032800047F436C448F40001A4EC13F004013C698F
:10329000DC0E3B6F01D0F3D7020E476FFA0E496F79
:1032A0000001AFEC02F00401472FF8D722A730D07D
:1032B000938281A212D0938281A20FD0640E496FB3
:1032C0000001AFEC02F0010E04012C272D51050D79
:1032D000F3502C5DD8B001D0EED72D51050DF35031
:1032E0002C5D01E22C6B2D51050DF3502C5D10E38C
:1032F000938281A20DD035C447F436C448F400014E
:10330000A4EC13F004013C69DC0E3B6F01D0F3D751
:103310003451090804E20001CCEF13F004012B53EF
:1033200012E0296B94908B8093968A9693988A9852
:1033300093908A90010E476F0001ECEC06F039EF94
:1033400015F00401ECD7938E81AE28D0020E476FA2
:10335000FA0E496F0001AFEC02F00401472FF8D7D5
:10336000938E81AE11D0010E2B6F2BC42AF42295BF
:103370002AB1228594948B84640E496F0001AFECCE
:1033800002F094948B940401938E81AE07D0640E66
:10339000496F0001AFEC02F00401F6D72C6B3B2B18
:0833A000D8B43C2B39D703001F
:020000040030CA
:0E00000000220C0E000181000FC00FE00F4027
:00000001FF
;PIC18F252
;CRC=FD07  CREATED="15-Mar-25 16:20"
